:400000000080002011000000610700006107000008B5044B1A6803F53F5302331A6000F0A7FB00BFFA46004010B5054C237833B9044B13B10448AFF300800123237010BD05
:400040004082FF1F00000000F0320000084B10B51BB108490848AFF300800848036803B910BD074B002BFBD0BDE81040184700BF000000004482FF1FF0320000C880FF1FCC
:400080000000000008B5002001F0DAFB18B1012001F0C8FD08BD002001F0C4FD08BD00BF38B5002403E0E0B201F0E0FB0134094B1B781D469C42F6DB064A5278934204D39C
:4000C00038BDE8B201F0EEFB0135024B5B789D42F7DB38BDCC80FF1F08B50F4B9B78834219D30E4B1B78984215D318B90F2001F08BFA08BD012803D1072001F085FA08BD14
:40010000022803D1032001F07FFA08BD032802D1012001F079FA08BDCC80FF1F5C82FF1F082811D0092811D00A2811D00B2811D00C2811D00D2811D00E2811D00F2811D01D
:40014000102811D0002110E000210EE001210CE003210AE0072108E00F2106E01F2104E03F2102E07F2100E0FF21002302E0044AD1540133034A52789342F8DB704700BF1D
:400180000881FF1FCC80FF1F014B1870704700BF2281FF1F002302E0034AD0540133034A52789342F8DB7047EC80FF1FCC80FF1FF0B583B062B6434801F036FC022100202E
:4001C00001F02CFE404C414B0F222146002000F0D1FC3F4B187022783E4B5A7063783E4D2B70FFF75DFFA078E870FFF799FFE078FFF7CAFF2079FFF7CDFF6079FFF76CFF5B
:4002000001F08AFA01F0CAFA01F026F90028FBD101F0CCFB01F0DCF9FFF734FF01F03CFE20B101F033FE08B102F0E6FD01F02EFE0028E9D002F036FE02F0ECFD00243CE0FE
:40024000244B5B781BB9254B33F8145002E0244B33F81450234B33F814309D4229D0B0278DF8047004EB4406F6B28DF8056005F07F038DF80630002201A9032002F016FF11
:400280008DF80470731C8DF80530C5F3C6138DF80630002201A9032002F008FF02368DF80560AB0B8DF80630002201A9032002F0FDFE0C4B23F814500134074B1B789C428B
:4002C000BEDBA1E700330000C082FF1FE483FF1FCF82FF1F5C82FF1FCC80FF1FD482FF1F4483FF1F8C82FF1F38B50C460B78902B11D14B783D2B0ED18B78003318BF0123D1
:400300005F4A53705F490B705F4B0F22002000F02BFD5E4B18702378B02B13D163788BB9A3785B4A527893420CD8594A137055494B70554B0F22002000F016FD534B187095
:40034000FFF7AEFE2378B02B19D16378012B16D1A0784F4B1B79984211D84D4B5B7998420DD34B4DE870FFF7DBFE4649EB788B70454B0F22002000F0F7FC444B187023783C
:40038000B02B1ED16378022B1BD1A2783C4B9B7803EBC213DBB23E4A9279934211D83C4AD27993420DD33A4D2B723649CB70364B0F22002000F0D8FC344B1870287AFFF791
:4003C000E3FE2378B02B08D16378032B05D1A37813F0800F01D12A4A93702378B02B1CD16378042B19D1A578254BDB7803EBC515EDB2274B5B7A9D420FD8254B9B7A9D42E9
:400400000BD32846FFF7C6FE1E490D711E4B0F22002000F0A9FC1D4B18702378B02B08D16378052B05D1A37813F0800F01D1144AD3702378B02B17D16378062B14D1A578D6
:400440000F4B1B789D420FD3114B9B789D420BD82846FFF741FE0B494D710B4B0F22002000F082FC094B18702378902B04D163783C2B01D101F092F901F090F938BD00BF0E
:400480005C82FF1FC082FF1FE483FF1FCF82FF1FCC80FF1FFEE700BFF0B40022174611E050F82760F3B226F0FF0608E001EB420511F812406D78A5550132013BDBB2002BBF
:4004C000F4D101371F2FEBD9F0BC70470E4B1B78DBB203F007010D4A11701B090132137010220B4B1A70002203F273631A70202203F253231A70012298331A704422A3F231
:40050000E5231A70704700BFCF0100496E580040FD51004008B50A46002102F0E0FE08BD38B50024264B1C80582202331A705F2202331A80182202331A70062203F27A23E9
:400540001A705222A3F580731A701E4B1B78DBB21D4A13704FF4E1621C4B1A8041F25122023B1A8019250CE0194B1B7803F0010343EA440404F003044FF4F07002F018FEBE
:40058000013D0DB1032CEFD115B90320FFF782FF104A4FF4807313800723137000230E490B7048200231087013700532137002220A4B1A700A4A137843F00303137038BD40
:4005C000804000400F010049A14600402242004025420040044000400640004001400040A243004008B502F06FFE08BD1C2808D8044B53F82020184490F8741013780B4360
:4006000013707047004700001C2809D8054B53F82020184490F87410137823EA01031370704700BF0047000038B572B6374A137843F00403137000240DE0354863001A19F3
:40064000510001440A46B1F89810D2F89400FFF761FF0134E4B2052CEFD92E494FF09040FFF71AFF4FF440732B4A13800232138003222A4B1A8002F1804202F5A83213782C
:4006800043F0020313701032137843F002031370234C237843F040032370A2F58632513A137843F01003137008221E491E48FFF799FF08221D491E48FFF794FF0A221D4920
:4006C0001D48FFF78FFF08221C491D48FFF78AFF08221C491C48FFF785FF08221B491C48FFF780FF1B4A137843F0080313701A4D61232B70FFF714FF81232B70FFF7E6FE71
:400700000E2221461548FFF76DFF38BDE846004000470000800000487058004048580040A04300404C0600480251004054060048C25100405C060048F051004068060048E3
:4007400012510040700600482251004078060048325100402243004000480040B043004008B502F085FD03680C2B00D1FEE7FEE708B5104E104D16E029686B68AC68002206
:4007800004E051F8040B43F8040B0432A242F8D1E868002203E0002143F8041B04328242F9D11035013E002EE6D102F067FDFFF7FFFCFEE701000000D04A000008B5104A75
:4007C000104B1A60104A136843F40073136000230AE0032B03D80D4A52F8231000E00C490C4A42F8231001332F2BF2D90A4B1A780A4B1A70074A0A4B1A60FFF715FF08BD42
:400800000004FA050CED00E014ED00E000000000610700000080FF1FBC760040C080FF1F08ED00E070B48A6902600024264608E013681BB19E4201D202601E4602F58072B6
:4008400001344D680B6903FB05F39C42F0D370BC704700BF8B6904E003F580730A68934203D21A688242F7D100E000231846704730B4044618B1086800F5807008600D68B3
:400880001868854201D398690860002010605868844218D31C69012C13D90968A1EB00259B699D420BD204F1FF1404F57F4400FB04F003EB0020C91A0844106003E015607B
:4008C00001E00B68136030BC704700BF10B404460022FF2013E0A35C584000230BE010F0800F04D04000C0B280F0310001E04000C0B20133DBB2072BF1D9013292B28A429F
:40090000E9D110BC704700BFC1680268D30912F07F0200D001221A44436803FB02F3027A02FB033301EB032321B1B3F5802F03D9032070470320704700207047F0B5059C43
:40094000069F00251560DD01A54206D85E1CF601013EB44203D9002602E0002600E00126D6B104F07F02803202603C44A54206D80133DB01013B9C4203D9002302E000235B
:4009800000E001231BB117440F600020F0BD4FF480730B600020F0BD04EB070E754505D80133DB01013B9E4500D8012666B180230360FB1864F07F041C440C6003681C1B24
:4009C000274417600020F0BD0120F0BD70B504460E46C0F3072500F0D3FA32462946C4F3074000F053FB044600F066FB0CB1042070BD002070BD00BFF0B5C3B004468368F6
:400A000000931D680127002623E0009F4FF48072394601A802F058FC01350195802121A8FFF754FF2090224601A93846FFF7CEFFA069009B1B1A2068224601A91844FFF7C4
:400A4000C5FF0746234641AA69462846FFF710FF01366268236903FB02F39E42D5D3384643B0F0BD2DE9F047C0B005468A4690469946489EB469041B33681C44C76F802148
:400A80000844FFF723FF874207D14A4605EB0801504602F019FC00241BE0E76F80216018FFF714FF874213D14FF480722146684602F00AFC324669462846FFF787FF04462A
:400AC00038B94A460DEB8801504602F0FDFB00E00224204640B0BDE8F08700BFF8B500293DD00D4600283CD0C368002B3BD043680A2B3AD80768002F39D00446FFF704FF96
:400B00000646002834D1EF6063682B61237A2B75637A6B75E368AB612368DA0913F07F0300D0012313446B60626802FB03F3E26802EB03232C4644F8083B29462046FFF766
:400B400071FEAB681B689BB92B7D8BB12846FFF753FF064629462046FFF764FE08E0012606E0012604E0012602E0012600E001263046F8BD2DE9F04F8BB00691002A00F066
:400B8000E68081461F46934613181C460793FB689C4200F2DF80002900F0DF80B8680368099304F1FF3A4FEAD913C3EBDA1A0AF1010ABC69031B7A681502B3FBF5F303FBA7
:400BC00002F304EB0323039300250EE0B9EBC51F06D36B1CDB01013B994503D9002302E0002300E001231BB901359542EED30025039BC01A030A184605933B69012B09D968
:400C000005EB0A03013B854207D8984208D20123049307E00023049304E00123049301E000230493C84600260123CDF82090894635E0039B03EB052008F07F0404F1800138
:400C40000136B24502D9C4F1800400E05C46049B63B1059B9D4209D97B68A0EB0320BA69904203D238685B1BA0EB03203B7D5BB1009723460A464946FFF7F4FE034648B1B0
:400C80008246DDF820900FE022460144484602F01BFB0023A044C4EB0B0BA14401355645C7D39A46DDF820905346002B57D1099B002B54D07D689D4228BF1D46013D5D1B91
:400CC000DDF81880079E1C463EE039462846FFF7C1FD8646002836D0436881681944994504D29E4294BF0022012203E089452CBF002201223AB3994502D3C3EB090C01E085
:400D00004FF0000C994502D2C9EB030000E000200CF10C0CB14228BF314699452CBFC9EB0103CB1A40443A7D42B10097624601467046FFF797FE824628B110E01A460EEB54
:400D40000C0102F0C1FA0135A542BED907E001239A4604E001239A4601E001239A4650460BB0BDE8F08F00BF2DE9F04FCDB01D4600230B930A93AB6809930391002A00F029
:400D80009F80824693461318EA68934200F29A80002900F099800BF1FF331B094C4AA2FB0323059301330493002307939946012081E0099B1C682B4608AA09A92046FFF75E
:400DC00057FD4FF4807200210CA802F088FA04F10108CDF83080CDF834A00399059B994502D1CDF838B007E070230E93ABF1700B9A44039B703303930E9A0FA802F064FAE5
:400E0000089921B1802211442CA802F05DFA6C68A04503D9C4EB0804013400E00124002731E0444501D10CAE04E029462046FFF711FD0646AA69099B9A1A120A6968B2FB46
:400E4000F1F301FB132356B17268B1680191009207AA0AA90BA8FFF771FD074600E001374FB90B98079931440A9A121A0C310CAB184402F029FA2B7D23B180212CA8FFF782
:400E800025FD2B9001344445CBD92A460CA90998FFF79CFD2B7D4BB140B9AA69099B9B1A28682A460CA91844FFF790FD68B9099BAB6009F10109049B9945FFF47AAF04E0B0
:400EC000012002E0012000E001204DB0BDE8F08F2649922410B500F075F900F023FA10BB012000F001FA072818D102210F4800F07BF902280AD102E0012000F0D3F80C4B70
:400F00001B7813F0020FF7D0002409E0084B1B7813F0020FE9D04FF0FF3401E04FF0FF3400F026FA00E00424204610BDD082FF1F2247004010B500F045F900F0F3F9D0B902
:400F400000F032FA0446072812D102E0012000F0A9F80A4B1B7813F0020FF7D0074B1B7813F0020F04D0054B1B789B0800D1002400F0FEF900E00424204610BD224700408F
:400F800008B5FFF7D7FF034610B9FFF7A3FF0346184608BD2DE9F041441FE4B23A2C01D9002500E0012510F0800F00D00125412800D901253F2803D8B1F5807F06D808E04D
:400FC000802900D90125102B02D102E0012500E0012502B90125002D50D1984616460F46044600F09FF9002847D1434632463946204600F013F9064607283AD102E00120F2
:4010000000F050F81F4B1B7813F0020FF7D01D4B1B7813F0020F06D01A4B1B789B0805D04FF0FF3603E04FF0FF3600E02E4606BB154A537812783946204600F02FF907288B
:4010400004D0064615E0012000F02CF80D4B1B7813F0020FF7D00B4B1B7813F0020F06D0084B1B789B0804D04FF0FF3601E04FF0FF3600F07DF9354600E004252846BDE86A
:40108000F08100BF22470040D082FF1F08B53F2801D9102301E04FF48073FFF77BFF08BD01BE704708B5034B1B7A00FB03F002F07FF808BDD880FF1F08B502F081F800BFDB
:4010C00000BF00BF00BF00BF00BF00BF00BF00BF00BF00BF00BF00BF00BF00BF00BF064A13889BB243F0040313801388BFF36F8F02F06AF808BD00BF0048004070B50446A0
:401100000E46074B1D681F2802D90020FFF7C8FF04F01F04103455F8240045F8246070BD08ED00E038B504460D46072902D90020FFF7B6FF1F2C02D90020FFF7B1FF04F0B6
:401140001F0000F1604000F564406D01EDB2057038BD00BF134B1B78DBB20360124A127843EA02230360114A127843EA024303600F4A127843EA026303600E4B1B78DBB269
:4011800043600D4A127843EA022343600B4A127843EA024343600A4A127843EA02634360704700BF0301004904010049EC46004002010049010100490001004905010049FC
:4011C0000601004908B501F0FBFF064A137843F0080313701032137843F00803137001F0F3FF08BDA043004070B506460D4600240CE00120FFF756FF064B1B7813F0010FCB
:40120000F7D0054B1B7833550134E4B2AC42F3D3204670BD224700402047004070B41D4C247814F0020F2CD01B4CB6252570D5252570022525700234247814F0020F22D1E4
:40124000154C2070002404E0165D134D2E700134A4B29C42F8D3B3F5807F16D13F2816D800F5103001EB00214801002305E01A5CD2B209490A7001339BB21F2BF7D90720D2
:4012800006E0042004E0092002E0072000E0072070BC7047224700402047004030B4104C247814F0020F15D00E4CB6252570D8252570052525700234247814F0020F0BD120
:4012C000084C2070080A2070C9B2217022702370072002E0042000E0092030BC704700BF22470040204700400C4B1B7813F0020F0FD00B4BB6221A70E1221A700E221A7073
:4013000002331B7813F0020F05D1054B187007207047042070470920704700BF224700402047004010B501F04BFF0F4B1B78A3B901220D4B1A700D4B1B6813F0010F0ED061
:401340000A4A136823F00103136000BF00BF00BF0122054B5A60002402E0042400E0002401F032FF204610BD6082FF1F0400084008B501F025FF0A4B00221A705B68012B15
:401380000AD1084A136843F00103136000BF00BF00BF0022024B5A6001F016FF08BD00BF6082FF1F04000840074B1B7813F0020F08D0064BB6221A70E0221A700D221A70D6
:4013C0000720704704207047224700402047004010B501F0F5FE0446134A137843F02003137000F011FC00F035FB00F08BFB0F4A137843F010031370103A137843F01003D5
:40140000137002F5A6520532137843F001031370204601F0D9FE0122054B1A60054A137843F08003137010BD9B640040BB43004000E100E07A6400400130C0B21A2808D0AA
:40144000C20800F0070101238B4002498A5C1342F2D07047E880FF1F024B187800F00100704700BF0983FF1F10B50B4B195C1A18147F03EB80039B6B09221A700F2900D1BE
:401480000721054A02EB8102D2F8A020137823431370FFF7ABF810BDB847000070B505460B4B1C5C03441E7FFFF7AEF80F2C00D10724074800EB8404D4F8A020137823EA07
:4014C0000603137000EB8500836B08221A7070BDB847000010B5002404E02046FFF7DEFF0134E4B2192CF8D910BD00BF10B50E4A137803F0FC0313700C4B1B781B020C4936
:4015000021F81030703A12781343DB4321F81030FFF7C4FF002000F011FB064A137843F00103137010BD00BF7A6400401A640040D482FF1F70580040024B187040081033A3
:40154000187070472B64004038B5094B034493F8C050084C2044007900F0F0FA254495F82020054B1A7094F83A00FFF7E5FF38BDB8470000E880FF1F5965004038B50546CF
:40158000FFF7E2FF084C237843F001032370074A137803F0FE0313702846FFF765FF237843F00203237038BD7A6400407058004008B5054B00221A70044A107081221A704B
:4015C000FFF7DCFF08BD00BF0983FF1F0883FF1F10B500220A4B1A700A4CFF2323702078FFF72AFF20702378DBB2192B07D8044A137843F0010313702078FFF7BFFF10BD34
:401600000983FF1F0883FF1F014B1870704700BF8B640040012805D1054A137803F0EF0313707047024A137843F01003137070477A64004038B5FFF74DFF0220FFF7EAFF41
:4016400001F0BEFD2E4A137843F0030313700132137843F00303137001F0B6FD4FF43442284B1A804FF6FF7520331D80072443331C7001F0A5FD244A137843F003031370FD
:40168000FF3A137843F00303137001F09DFDFF231E4A157020321370403A1370DF3A137030321370103A1370012203F1E02381331A6017490020FFF721FD21460020FFF797
:4016C00031FD00F09DFA1A20FEF790FF1B20FEF78DFF1C20FEF78AFF0E4A137843F00403137000F0F1F900F049FA002000F05CFA042000F069FA002000F020FA38BD00BF99
:4017000098640040286400409965004029650040D91900007A64004008B5054B1B7823B9FFF788FF0122024B1A70FFF751FE08BD6882FF1F10B40B4B1A5C0B4B33F810302F
:401740000A4921F810300021094C2154094C24F8101009498C5C09498C54094A22F8103010BC704778480000D482FF1F7883FF1F2883FF1F4483FF1F2481FF1F6C82FF1FDB
:40178000AC83FF1F10B50446FFF712FFFFF764FE0028FBD12046FFF7CDFF10BD10B5002404E02046FFF7EEFF0134E4B2192CF8D910BD00BFF0B5C40800F0070201239340A1
:4017C000DBB21A4A125C1A4D05EB4206B78BB6F85010AE5C174D2D5D2B420DD0DFF85CE03EF81000791A88421ADA25EA030511490D5511498E5413E0DFF840E03EF8100070
:40180000394488420ADD0C49895C012902D81D430848055501390848815401E006498E54044A105D184000D00120F0BD784800002481FF1FE083FF1F6C82FF1F4483FF1F1B
:4018400070B5094B1C5C1844057F2544EDB200262046FFF7AFFF00B101260134E4B2A542F6D8304670BD00BF9448000030B40B4A135C1044057F1D44EDB2D80803F007016E
:4018800001228A40D2B2064C215C0A4322540133DBB29D42F1D830BC704700BF94480000E880FF1F30B40B4A135C1044057F1D44EDB2D80803F0070101228A40D2B2064CDA
:4018C000215C21EA020222540133DBB29D42F0D830BC704794480000E880FF1F084400EB4100C0F38F007047F8B50446274B1A5C274B03EB4203B3F88460264D35F8101035
:40190000254B33F81000FFF7E9FF25F81400234B33F81420904203D3851AADB2012702E0151AADB2002787B9142D0ED91C4B1B5D042B06D92046FFF7FDFE0022184B1A551B
:4019400017E00133164A135513E0B54202D9132D0FD877B913490B5D43EA02231844801AC0F30F220D4B23F81420085500220C4B1A55B54204D91FB10B4B23F81450F8BD4E
:401980000022094B23F81420F8BD00BF784800002481FF1FAC83FF1FD482FF1F7883FF1F0C83FF1F2883FF1F4483FF1F10B500240DE0E20804F0070101238B4005498A5C57
:4019C000134202D02046FFF78FFF0134E4B2192CEFD910BDE880FF1F10B5114B1878FFF785FD104B1B7813F0800F05D00D4A137803F0FE03137010BD094C2078FFF71CFD0B
:401A000020702378DBB2192B03D82078FFF7B6FD10BD044A137803F0FE03137010BD00BF0883FF1F0983FF1F00B585B000238DF809304FF4807200928DF808300A23019382
:401A4000039003496846FFF749F805B05DF804FBE483FF1F054A137843F0010313701032137843F001031370704700BFA74300400F490B7803F0FC0200F0030313430B70C6
:401A800001280AD10B4B1B78DBB20B4A13700B4B1B78DBB2013213707047094B1B78DBB2054A1370074B1B78DBB20132137070474058004010010049304600401401004986
:401AC000AD010049B501004908B50020FFF7D0FF0B4B1A7842F020021A701A7802F0FB021A701A7842F008021A7003F287231A7802F0E7021A701A7842F010021A7008BD6A
:401B000040580040054A137843F0010313701032137843F001031370704700BFA8430040054B1A7802F0FD021A701A7800F0020010431870704700BF20580040014B187053
:401B4000704700BF805B0040094B1B7803F00C035B08084A127812F0040F00D0013303F1924393F82031DBB2034A1370704700BF20580040215800400846004008B5142229
:401B8000084B1A700133002018701A7842F004021A701A7842F002021A70FFF7C1FFFFF7D3FF08BD2058004008B5064B1A7802F0FB021A701A7800F0040010431870FFF75B
:401BC000C3FF08BD2158004008B5064B1A7802F0F3021A701A7800F00C0010431870FFF7B3FF08BD2058004010B5002404E02046FEF70AFD0134E4B21C2CF8D910BD00BF67
:401C000008B5FFF7F1FF08BD054A137843F0010313701032137843F001031370704700BFA2430040044A137803F0FD03400000F0020018431070704720510040F8B501F0A7
:401C4000BFFA05463C4A137843F0010313701032137843F0010313700127384B1F700226943B1E7002F5E2521B32137803F07F0313700020FFF716FA314C237803F0F90327
:401C80002370304A137803F0DF03137023783B4323703846FFF706FA2820FFF703FA2A4B1A7802F07F021A701A7802F0BF021A702378334323703046FFF7F4F9237843F03B
:401CC000040323700023214A137001321370284601F07AFA07211720FFF724FA1C491720FFF70CFA07211820FFF71CFA19491820FFF704FA07211520FFF714FA16491520B6
:401D0000FFF7FCF907210320FFF70CFA13490320FFF7F4F907210420FFF704FA10490420FFF7ECF907210C20FFF7FCF90D490C20FFF7E4F9F8BD00BFA54300409D6000400A
:401D40009443004012600040F8510040846000409924000005230000952400003124000061240000A124000008B5204B187000231F4A13701F4A13701F4A13701F4A13702D
:401D80001F4A13701F4A13701F4A13701F4B4FF400021A604FF080721A604FF400121A6008221A6010221A6011B1012906D00BE0174A137803F0FE0313700AE0144A137889
:401DC00043F00103137004E0114A137843F00103137003220F4B1A708022203B1A70012001F0E6F904220C4B1A7008BD0B84FF1F0084FF1F1284FF1F1884FF1F0184FF1FF8
:401E00000C84FF1F2984FF1F0284FF1F00E100E009600040286000401260004038B504460D46064B1B7823B9FFF708FF0122034B1A7029462046FFF797FF38BD8782FF1FE2
:401E400000230A4A13700A4A13700A4A13700A4A13700A4A13700A4A13700A4A13700322094B1A708022203B1A7070470084FF1F1284FF1F1884FF1F0184FF1F0C84FF1FBC
:401E80002984FF1F0284FF1F28600040014B1878704700BF1884FF1F064B1B7813F0FF0F05D0044B1878C0B200221A7070470020704700BF1284FF1F00EB40008300024A1D
:401EC00013445878704700BF2C84FF1F431EDBB2072B0BD8064B00011A18185C00F00F00537843EA0020023880B2704700207047FC5F0040431EDBB2072B3CD8F0B40746AB
:401F000000EB4004A3001C4C2344DB889BB2C3F500739A4208D900EB400293002344DA8892B2C2F5007292B200EB4004A300124C2344DB7843EA1223104D04012E192B55B9
:401F4000D3B2737039B909E0CE5C3D010C4C665501339BB200E000239A42F5D8420002449300054A134400225A705A79D2B20001044B1A54F0BC70472C84FF1FFC5F0040E8
:401F800078600040FE5F0040431EDBB2072B0BD8420002449300054A134400225A705A79D2B20001024B1A54704700BF2C84FF1FFE5F004070B5D9B1054614460E46C8B1A7
:401FC000082819D8FFF782FFA04203D22846FFF77DFF0446002305E02901094A525CF25401339BB2A342F7D32846FFF7CDFF04E0002402E0002400E00024204670BD00BF2B
:40200000786000401D4B19781D4A13889BB20B449BB2138000220FE01A494B681B78DBB2194883544B6801334B600132D2B20B889BB2013B9BB20B80124B1B889BB20BB14C
:40204000072AE9D90D4B1B78DBB2082B00D05AB10E490B7883F080030B700F210C4B197002210C4B197004E0022309490B7009490B70094B1A70014B1A7070470284FF1FD7
:402080001684FF1F1C84FF1F006000400D84FF1F0A84FF1F0084FF1F2884FF1F0222074B1A708022064B1A700F22064B1A700023054A1370054A1370012070470084FF1F79
:4020C0000D84FF1F0A84FF1F0284FF1F2884FF1F08B5FFF797FF08BD10B4194B197801F00F010239C9B2174A13889BB20B449BB21380002011E0144A5468144B1B5CDBB293
:4021000023705368013353600130C0B20139C9B213889BB2013B9BB213800B4B1B889BB20BB10029E7D10A4B19700A4A137883F0800313700B22084B1A7010BC704700BFA9
:40214000296000401684FF1F1C84FF1F006000402884FF1F0D84FF1F0A84FF1F0623064A1370064A13708022054B1A700022054B1A700120704700BF0084FF1F0A84FF1F2F
:402180000D84FF1F2884FF1F064B9B6843B1054B9A6810709A6804490988518000229A60704700BF1C84FF1F1684FF1F08B5134B1A78D2B21A701B78DBB213F0800F02D094
:4021C0000F4A137008BD0220FFF7DEFF0D4B1B7803F06003202B05D0402B06D043B900F055FC06E000F0F4FF03E000F0F9FD00E0002010B90322024B1A7008BD2860004086
:402200000A84FF1F0060004008B5094B1978094A13889BB20B449BB213800022064B1A700120FFF7B1FF0322044B1A7008BD00BF0284FF1F1684FF1F0084FF1F0A84FF1F56
:4022400008B50B4B1B78DBB2042B06D0062B07D0022B0BD1FFF7D8FF08BDFFF73DFF08BD0320FFF791FF0322024B1A7008BD00BF0084FF1F0A84FF1F08B50022044B1A705D
:402280000120FFF781FF0322024B1A7008BD00BF0084FF1F0A84FF1F08B50B4B1B7813F0FF0F07D0084A137843F0800307490B70002313700022064B1A700120FFF764FFB0
:4022C0000322044B1A7008BD0C84FF1F086000400084FF1F0A84FF1F08B5094B1B78DBB2042B06D0062B07D0022B07D1FFF7F0FE08BDFFF7C1FF08BDFFF7CEFF08BD00BFC9
:402300000084FF1F08B5284B1B78DBB213F0100F48D013F0800F0CD003F00F03012B16D1FFF744FF214B1B7813F0800F11D1012312E013F0400F03D0FFF7CEFF01230BE032
:4023400013F0200F07D0FFF77BFF012304E0002302E0002300E0002323B3134B1B7813F0800F1FD1124B1B78124A12781343124A13701278D2B2934214D10C4B1B78DBB21E
:40238000094A127812F0800F07D1084B1B78DBB2054A1370137803F00F03044A1278D2B29342EAD108BD00BF286000400A84FF1F0D84FF1F2884FF1F296000400022064B69
:4023C0001A80064B9B682BB1044A916800230B7092685380704700BF1684FF1F1C84FF1F08B50F4B1B889BB213B9FFF757FE15E002220C4B1A7000220B4B1A70FFF7DEFF88
:402400000A4AD179937943EA0123054A128892B2934201D2024A1380FFF7F4FD012008BD1C84FF1F0084FF1F0D84FF1F006000400122094B1A700F3B9B7C084B1B7B03F033
:402440000303934204D0054AD37B83F08003D3730122024B5A7370470B6000402C84FF1F02220A4B1A700F3B93F82230084B1B7E03F00303012B04D0054AD37E83F08003C2
:40248000D3760122024B5A76704700BF0B6000402C84FF1F704700BF08B5FFF7D1FC08BD08B500F07DFE08BD70B588B0054603AC174E0FCE0FC43368237035B322232B709A
:4024C00003236B7001A8FEF745FE002402231AE008AA224412F81C2C08A901EB121111F8141CE954581C00212954981C02F00F0208AE324412F8142C2A54DA1CA954013432
:40250000E4B20433DBB2212BE2D908B070BD00BFCC48000010B401233EE019461A010C242148845403EB4300820020480244527912F0FF0F13D003EB430082001B48024416
:40254000127912F0800F04D01801194A024494700AE01801164A02440820907004E01801134A0244802090704800084482000F480244D488E4B208010B4901448C71D088F8
:40258000C0F30720C871D088C0B20871D288C2F307224A710133DBB2082BBED9FF22054B1A7010BC704700BF706000402C84FF1FFC5F00400A600040074B1A78074B03EBC3
:4025C000C2035B681A7C824204D9C0001030184440687047002070470B84FF1FE0480000F8B5404B1B7813F0FF0F79D03D4B18780138C0B2FFF7E0FF047AC2683A4B18783B
:40260000C0B200236AE01178884264D13749095CC9B25578A9425ED1917801F07F01D67806F00306DFF8C8E04D000D44AF000EEB07054FF0000C85F803C092F802C085F800
:4026400004C092F803C00EF807C097882F8192F90250002D0DDA012E01D1072700E00D274E000E44B500224E35446F7101266E700CE0012E01D1052700E009274E000E448D
:40268000B5001B4E35446F7100266E70DFF868E00F010EEB07060125B57001FA05F529448D00134929440D89C5F307250EF807500D89EDB27570CE88F6B20E4D3D44AE717D
:4026C000CE88C6F30726EE71CE88F6B22E71C988C1F30721697108320133DBB2A34292D3F8BD00BF1884FF1F0184FF1F0884FF1F2C84FF1F70600040FC5F0040034B1A7882
:40270000034B03EBC2035868704700BF0B84FF1FE048000008B5084B18780138C0B2FFF74BFF30B142681279023200EBC203586808BD002008BD00BF1884FF1F2DE9F843D4
:40274000002310E0724D5900CA189600AC190022AA55A270E2702281A272627034462C4462710133DBB2082BECD940B90AE000226849CA546849CA540133DBB200E0002306
:40278000012BF4D9654B1B7813F0FF0F00F0BD80624B18780138C0B2FFF70EFF4368DB7913F0400F05D05E4A137843F00103137004E05B4A137803F0FE031370057A012472
:4027C00074E0C16800236DE08A7802F07F02944265D1264604EB4407BA004D4F3A44128992B28F88BA4207D204EB440E4FEA8E02DFF81CE1724417810A78464FBA5CD2B249
:402800004F78BA424BD191F802C0DFF804E17200324497000EEB070282F804C0CA780EF80720CA7802F0030291F90270002F1BDA012A02D14FF0070901E04FF00D09DFF8D1
:40284000D0C0770007EB06084FEA880EE6448EF8059001268EF801608E79012E1FD1022A1DD1304A14701AE0012A02D14FF0050901E04FF00909DFF898C0770007EB0608D4
:402880004FEA880EE6448EF8059000268EF801608E79012E03D1022A01D1234A147008310133DBB2AB428FD30134E4B2082C88D9C06800220CE0837803F07F0310F8084B54
:4028C00003EB43039900124B19448C720132D2B2AA42F0D3FFF71EFF144B1860002301210FE00B4D4A00501884002C44E380228992B213449BB203F0010213449BB201310F
:40290000C9B20829EDD9FFF705FEBDE8F88300BF2C84FF1F0884FF1F1084FF1F1884FF1F2984FF1FB884FF1FBA84FF1F0484FF1F08B5154B1B7903F07F035A1ED2B2072AEF
:4029400020D8590019448A0010490A44917841F0010191700021D170517841F002015170127912F0800F05D01B01094A1A448D23937004E01B01064A1A4489239370FFF757
:40298000EDFB08BD002008BD006000402C84FF1FFC5F0040274B1B7903F07F035A1ED2B2072A44D810B5590019448A0022490A44917801F0FE0191700021D1701F4C18011A
:4029C000215C01F07F012154517801F0FD015170127912F0800F13D003EB43018A0016490A445278D2B2012A04D1224602440C23937019E01B01114A1A440D23937013E071
:402A000003EB43018A000C490A445278D2B2012A05D11B01094A1A440823937004E01B01064A1A4409239370FFF798FB10BD0020704700BF006000402C84FF1FFC5F00401B
:402A400010B50E4B1C79E4B20D4B18780138C0B2FFF7B2FD43681B799C4201D9022C0AD8084A135DDBB208490B55044B9B78DBB21355012010BD002010BD00BF006000403D
:402A80001884FF1F0884FF1F1084FF1F10B59C4B1B78DBB200219B4A118013F0800F00F0AD80974A5278D2B20A2A00F27481DFE812F06900720172017201720172010B0028
:402AC0007201920072019A008D4BDB78DBB2012B09D1FFF713FE42688A4B5A6012221A80FFF77EFC10BD864BDB78DBB2022B13D1834B9878FFF760FD002800F04E81426837
:402B0000804B5A605A68D1785A68927842EA01221A80FFF765FC10BD794BDB78DBB2032B05D02CE00A7811440133DBB201E000237549734A9278D2B2934203D20A7812F0A6
:402B4000FF0FEFD16E4B9B7813F0FF0F0BD06C4B9B78DBB26D4A127C934204D16C4C2046FFF7A2FC21460B7813F0FF0F00F017810B78644A13805160FFF732FC10BD00F0FE
:402B800027FB10BD13F0030317D0022B40F009815C490B805A4B1B7903F07F0303EB43039A005C4B1A449278D2B25B4B1A7000225A704B60FFF714FC10BD524902230B802B
:402BC000564B1A78D2B2544B1A7000225A704B60FFF706FC10BD4B4B01221A80504A5A60FFF7FEFB10BD474A01231380444B1B794C490B445360FFF7F3FB10BD404A52782F
:402C0000013A0A2A00F2CF80DFE812F04C00CD009800CD000B00CD00CD00CD001300CD003000374B9B78DBB23F4A1370FFF796FA10BD334B9B7803F0FF041BB1601EC0B257
:402C4000FFF7BAFC04B110B9002C40F0AE80344B1B78DBB29C4206D0314B1C700120334B1870FFF76BFDFFF779FA10BDFFF7E8FE002800F09C80224A1379DBB21279D2B2E6
:402C80002B490A702B4AD25CD2B22649CB5CDBB29A4204D00122254B1A70FFF7A1FCFFF75DFA10BD03F00303012B17D04BB1022B7FD1134B9B7813F0FF0F7CD1FFF76AFEB0
:402CC00010BD0F4B9B78DBB2012B76D1134A137803F0FD031370FFF741FA10BD084B1B79DBB2012B6BD8064B98781B79DBB21249CA5C22EA0002CA54FFF730FA10BD00BF80
:402D0000006000401C84FF1F40490000984A0000DC84FF1F2C84FF1F8882FF1F2984FF1F1884FF1F0884FF1F0C84FF1F1284FF1F0184FF1F1084FF1F1484FF1F03F00303C1
:402D4000012B17D04BB1022B3BD1224B9B7813F0FF0F38D1FFF7ECFD10BD1E4B9B78DBB2012B32D11C4A137843F002031370FFF7F5F910BD174B1B79DBB2012B27D8154B22
:402D800098781B79DBB21549CA5C22EA0002CA54FFF7E4F910BD002010BD002010BD002010BD002010BD002010BD002010BD002010BD002010BD002010BD002010BD002030
:402DC00010BD002010BD002010BD002010BD002010BD00BF006000402984FF1F1484FF1F044B1B7813F0800F01D0024B5B780020704700BF0060004008B50022034B1A7020
:402E0000034B1878FFF7C0F808BD00BFB984FF1FBA84FF1F38B5124B1878FFF74DF801281DD10F4C2078FFF751F82378C2B20D491846FFF7BFF8C5B2032D0DD838BD094B28
:402E4000185D60B1631C0749194400F0F000FDF74BFA0434E4B200E00024AC42EFD338BDBA84FF1F9884FF1F0B4B1B7813F0FF0F10D010B5094B1878FFF71EF8012808D1E9
:402E8000064B1878044C22780549FFF733F80023237010BD704700BFB984FF1FB884FF1FBC84FF1F08B5FFF7DFFF08BD70B40D784C78F72821D97B4A1478E4B27A4943F013
:402EC0000F030B5513780133DBB213701378DBB2C85413780133DBB213701378DBB20020C85413780133DBB213701378DBB2C85413780133DBB21370D2E0032801D9F02899
:402F00005FD1F0280BD1674A1078C0B243F00403654E335413780133DBB2137038E0EF2D0BD8604A1078C0B243EA15135E4E335413780133DBB213702AE0F62D0BD1594AC1
:402F40001078C0B243F00503574E335413780133DBB213701CE0F12D01D0F32D0BD1514A1078C0B243F002034F4E335413780133DBB213700CE0F22D0AD14A4A1078C0B206
:402F800043F00303484E335413780133DBB21370444B1A78D2B2444885541A780132D2B21A701A78D2B284541A780132D2B21A701A78D2B2897881541A780132D2B21A708F
:402FC0006EE0F7286CD1012A26D012B1022A46D066E0344A1078C0B2334943F005030B5413780133DBB213701378DBB2F720C85413780133DBB213701378DBB20020C854F0
:4030000013780133DBB213701378DBB2C85413780133DBB2137043E0224A1078C0B2224943F006030B5413780133DBB213701378DBB2CD5413780133DBB213701378DBB240
:40304000F720C85413780133DBB213701378DBB20020C85413780133DBB2137020E0114A1078C0B2104943F007030B5413780133DBB213701378DBB2CD5413780133DBB28D
:4030800013701378DBB2CC5413780133DBB213701378DBB2F720C85413780133DBB2137070BC7047B984FF1FBC84FF1F2DE9F04104460E461746374B1978C9B2364B1B78EC
:4030C00003EB43039A00354B1A4413899BB2043B994201D9FFF7C8FE2E4B1978C9B22E4B1B7803EB43039A002C4B1A4413899BB2043B994248D8231FDBB2EB2B08D93B46ED
:40310000224631462046FFF7D1FE4FF000083DE000253B4603227119F020FFF7C7FE033CE4B20335EDB21B4B1978C9B21A4B1B7803EB43039A00194B1A4413899BB2043B33
:40314000994210D9FFF790FE124B1978C9B2124B1B7803EB43039A00104B1A4413899BB2043B994204D8022CD3D84FF0000801E04FF00108B8F1000F08D13B4622467119FB
:40318000F720FFF793FE01E04FF001084046BDE8F08100BFB984FF1FB884FF1F2C84FF1F024B1878C0F38010704700BF8F4500400230800803D000BF01380046FCD1704771
:4031C000EFF3108072B6704780F31088704700BF08B5144B1B7803F00303012B02D0022B04D00FE00F4B1B79DBB20CE00D4B1B7903F07F0303EB43039A000B4B1A44937A10
:40320000DBB200E00023022B07D8084A1268D35C012B04D100F00CF808BD002008BD002008BD00BF006000402C84FF1F0484FF1F0E4A137803F00303127812F0800F09D0D0
:40324000022B02D1094B5B780DE0012B0BD1074B5B7808E0022B02D1044B5B7803E0012B01D1024B5B780020704700BF00600040014B1868704700BF3C82FF1F0E4B70B530
:403280001E460E4C0025E41AA410A54204D056F8253098470135F8E701F008FC084B094C1E46E41AA4100025A54204D056F8253098470135F8E770BDB84A0000B84A0000CC
:4032C000B84A0000C04A000010B5431E0A44914204D011F8014B03F8014FF8E710BD03460244934202D003F8011BFAE7704700000000000000000000000000000000000076
:40330000000000000000000000000000000000000000000000000000000000000000000000000000000000000000000000000000000000000000000000000000000000008D
:40334000000000000000000000000000000000000000000000000000000000000000000000000000000000000000000000000000000000000000000000000000000000004D
:40338000000000000000000000000000000000000000000000000000000000000000000000000000000000000000000000000000000000000000000000000000000000000D
:4033C00000000000000000000000000000000000000000000000000000000000000000000000000000000000000000000000000000000000000000000000000000000000CD
:404700003C5100403C5100403C5100403C5100403C5100401C5100401C5100401C5100401C5100400C5100400C5100400C5100402C5100402C5100402C5100402C510040F9
:404740002C5100401C5100403C5100403C5100400C5100400C5100402C510040FC510040FC510040FC510040FC510040C35A0040835A004001020810201020408020408085
:40478000081020408004408001020101022010011000000040510040300000000140001000140140000800400140000A004C01400002005001402000030303030301010169
:4047C0000100000002020202020103030000020F0F0F00000102081020102040802040800810204080044080010201010220000018500040195000401B5000401C500040E2
:404800001D5000400C5000400D5000400E5000400F50004005500040065000400750004013500040145000401550004016500040175000400A5000401E5000401F50004063
:4048400000500040015000401050004078500040795000407D500040065200400E520040165200401E520040265200402E520040365200407E52004000010203040506075D
:4048800008090A0B0C0D0E0F101112131415161718190000000102030405060708090A0B0C0D0E0F101112131415161718190000010101010101010101010101010101017A
:4048C000010101010101010101010000303132333435363738394142434445460000000001000000E848000001000000984A000000000000000000000100000000490000AE
:4049000001000000304A0000020000002C49000000000000000000000000000000000000000000002849000001010000010081022000010001000202200001000203000042
:40494000040309042A0353006E007900640065007200700068006F006E0069006300730020004400650076006B0069007400120355005300420020004D00490044004900C4
:4049800024034D00490044004900200043006F006E00740072006F006C00200049006E007400660028034D004900440049002000530074007200650061006D0069006E004A
:4049C0006700200049006E00740066002E0354006F00200053006E007900640065007200700068006F006E006900630073004400650076004B0069007400320346007200EE
:404A00006F006D00200053006E007900640065007200700068006F006E006900630073004400650076004B0069007400000000000902650002010180320904000000010195
:404A400000030924010001090001010904010002010300040724010001250006240201010506240202020509240301030102010609240302040101010609058102200000F9
:404A80000000052501010309050202200000000005250101010000001201000200000008242426240100010280014300F8B500BFF8BC08BC9E4670474D000000BD07000061
:404AC000F8B500BFF8BC08BC9E46704729000000E04A0000C880FF1F78010000C002000000000000021A030A1008FF010BFF01030000E02EC05D00001800000000366E010C
:404B0000FFFFFF03C8C8C8C8C8C8C8C8C8C8C8C8C8C8C8C8C8C8C8C8C8C8C8C8C8C8000003030303030303030303030303030303030303030303030303030B0003030505BC
:404B40000505050505050505050505050505050505050505050500001E001E001E001E001E001E001E001E001E001E001E001E001E001E001E001E001E001E001E001E006F
:404B80001E001E001E001E001E001E000A000A000A000A000A000A000A000A000A000A000A000A000A000A000A000A000A000A000A000A000A000A000A000A000A000A003D
:404BC0000D000D000D000D000D000D000D000D000D000D000D000D000D000D000D000D000D000D000D000D000D000D000D000D000D000D0000000000000000000000000063
:404C00000000000000000000000000000000000000000000AA4A00000000000000000000000000000000000000000000000000000000000000000000000000000000000080
:404C40000000000000000000000000000000000000000000DC81FF1F00000000000000000000000000000000000000000000000000000000000000000000000000000000B9
:404C800000000000000000000000000000000000000000000000000000000000000000000000000000000000000000000000000000000000000000000000000000000000F4
:404CC00000000000000000000000000000000000000000000000000000000000000000000000000000000000000000000000000000000000000000000000000000000000B4
:404D00000000000000000000000000000000000000000000000000000000000000000000000000000000000000000000000000000000000000000000000000000000000073
:404D40000000000000000000000000000000000000000000000000000000000000000000000000000000000000000000000000000000000000000000000000000000000033
:020000040003F7
:0200000480007A
:40000000014500400852004007640040046500400101014002030140010501406208014041090140590A0140360B0140020D0140010F0140011701405618014044190140D9
:40004000701A01404B1B01400A400140074101400542014002430140054401400445014004460140054701400548014003490140034C0140074D0140045001400251014057
:400080007E0206E30EF416F91EFB618064407C407E230AFF0BFF1AFF2AFF880F89388B1F09FF19FF29FF8972E208E602EE02E208000302140413060C0E0816401A151E206A
:4000C00020132204240A26142C202E403010320F34603A083E114001410549FF4AFF4BFF4C024D0C4EF85401560458045A045B045C015D105F01624863A168F06AF06CF0E2
:400100006EF0801082058401860287308C039003911594139608973F990F9A029B409E20A12AA220A602A802AA15AC04AD3CAE11B010B203B30CB420B503B60CB770BB026A
:40014000BE51BF54C005C101C50AC9FFCAFFCBFFCC03CD0CCEF4D418D604D804D904DA04DB04DC10DD10DF01E248E3A1E8F0EAF0ECF0EEF00040010A0504064007010AA8DF
:400180000B020C500E201002110412081302150116021708180419881A401B081D041E901F20208A210429022A80300232183808420147804A114E0159015E885F11600495
:4001C0006280638067809048910492AB9508978098409A029B809D029E80A101A209A403A708C0BDC2EFC4BFCA09CC07CE02D018D218D6F1D88D01740388070409BF0B40C3
:400200000D03100B1111121415CC1733181D1A021B041C171DFC1E08212222032703281029FC2A042D082F8030183178338034063504360137033F40401541034502470609
:4002400048115217580459045A045B045F01610C62F0630C650C670C6840694C6A406B4C6C906D586F0C92019C029F01A501A802B002B101B401B802C065C540C620C7050A
:40028000C81AC9FFCAFFCBFFCC02CD20CF05D110D602D804D904DA04DB04DE08DF01E040E140E280E480E6800A890E800F0211101302160819101A8B1E801F20204121114C
:4002C00022182601278029062A402B082F203002311032483440364039263A804001410445014640480149044E014F2250045608571069146B02720276407E0186808740CA
:40030000A708C29BC44ACA4FCC1FCE0FD00AD238DE10E0028708EE02E208EA84180134013E1040234104460C47BE483449FF4AFF4BFF4EF04F44500C560858045A045B0F96
:400340005D015F0166C06A406B0281108223841C85188623880389088C3F8D7F9033920C9304941F96209801991C9B619C029D679F18A008A323A404A504A80CA93CAB422A
:40038000B00FB22CB338B410B51FB740B980BA0ABB20BE10C045C106C560C720C822D602D711D804D904DA04DB04DC11DD10DF01E10CE2F0E30CE50CE70CE840E94CEA40B5
:4003C000EB4CEC90ED58EF0C00C402100388082009800AA00F081080131419101AA01E0820042108230228202A102B80325138683A023D203E10424044504510480449824C
:4004000050025644570559105F40668069547094720273147D028B4092509501970299809C109D039EC49F0BA044A101A402A684AA04AB41B240B330C00FC24FC40ECA07B6
:40044000CC0DCE0FD0E1D20CD614D810DE80EA80020305030603080709030A380C030F0810031603170818091A441D021F0120122244249C25012706289C2C803003310478
:40048000321C33083460368037033E103F044061410442034402460C47E0482449FF4AFF4BFF4C624DA04EF04F41500C580459045A045C115D015F016640670269106A3044
:4004C0006B106D106E106F12870888C789718A308B068C0A8EC4930C940496A3992C9A189B439C05A003A171A26CA30EA580A620A713A804AA40B330B41FB50FB6E0B7C05E
:40050000B988BA80BB20BF04C002C704C9FFCA07CBFFCC40CD20CEF0CF05D008D804D904DA04DC11DD01DF01E040E1A8E240E320004002100388070908200AA00E180F0249
:4005400011541301141015011604180419011A011B881E081F402180220523012620272928202C502D012F60318836203701388039143D083E104044410842014720492073
:4005800050405301550456045720820486848C209040915492B095019602970299209A109C709D019F09A108A301A580A680A788B520B640C0CFC2EEC47FCAC2CCAACE6E2C
:4005C000D02FD204E4043012340235803A2078408620CCF0CE10DC80E21084109C509D80A402AC02E640EE4084029C409D80A402E2109C409D8029203A108710CA08CE084A
:40060000973099209E10AF108610973099209E100B200F1097309920C20CA320A980B040B320EA207B20A320DE4089209920E2041280700180018E80C408DC01E2020003D2
:400640000C0310031C0300BF010200000000E3000000000040808000800000004000000023000000D0000000000BFF00000000000002FB00000000000000FB00000000009F
:40068000000000000000000000000000000000000000000000000000000000000000000000000000000000000000000000000000000000000000000000000000000000003A
:4006C00000000000000000000000000000000000000000000000000000000000000000000000000000000000000000000000000000000000000000000000000000000000FA
:4007000000000000000000000000000000000000000000000000000000000000000000000000000000000000000000000000000000000000000000000000000000000000B9
:400740000000000000000000000000000000000000000000000000000000000000000000000000000000000000000000000000000000000000000000000000000000000079
:0200000490006A
:0400000000004005B7
:0200000490105A
:04000000BC90ACAF55
:0200000490303A
:02000000D28F9D
:0200000490402A
:4000000000000000000000000000000000000000000000000000000000000000000000000000000000000000000000000000000000000000000000000000000000000000C0
:400040000000000000000000000000000000000000000000000000000000000000000000000000000000000000000000000000000000000000000000000000000000000080
:400080000000000000000000000000000000000000000000000000000000000000000000000000000000000000000000000000000000000000000000000000000000000040
:4000C0000000000000000000000000000000000000000000000000000000000000000000000000000000000000000000000000000000000000000000000000000000000000
:0200000490501A
:0C00000000012E16106900012E2BE2F802
:00000001FF