:400000000080002011000000F5070000F507000008B5044B1A6803F53F5302331A6000F0F1FB00BFFA46004010B5054C237833B9044B13B10448AFF300800123237010BD93
:400040004082FF1F0000000008450000084B10B51BB108490848AFF300800848036803B910BD074B002BFBD0BDE81040184700BF000000004482FF1F08450000C880FF1F76
:400080000000000008B502F073FE18B10022054B1A7004E0034A13780133DBB2137004F063F908BD5C82FF1F08B5002002F03AFB18B1012002F028FD08BD002002F024FD4D
:4000C00008BD00BF38B5002403E0E0B202F040FB0134094B1B781D469C42F6DB064A5278934204D338BDE8B202F04EFB0135024B5B789D42F7DB38BDCC80FF1F08B50F4B8E
:400100009B78834219D30E4B5B78984215D318B90F2002F0EBF908BD012803D1072002F0E5F908BD022803D1032002F0DFF908BD032802D1012002F0D9F908BDCC80FF1FF7
:400140005C82FF1F082811D0092811D00A2811D00B2811D00C2811D00D2811D00E2811D00F2811D0102811D0002110E000210EE001210CE003210AE0072108E00F2106E064
:400180001F2104E03F2102E07F2100E0FF21002302E0044AD1540133034A52789342F8DB704700BF0881FF1FCC80FF1F014B1870704700BF2281FF1F002302E0034AD054C6
:4001C0000133034A52789342F8DB7047EC80FF1FCC80FF1FF0B583B062B6524802F096FB0221002002F08CFD4F4C504B0F222146002000F009FD4E4B187022784D4B9A7055
:4002000063784D4D2B70FFF75DFFA078E870FFF799FFE078FFF7CAFF2079FFF7CDFF6079FFF76CFF02F0EAF902F02AFA02F0B6FD60B102F0ADFD38B1404804F0B5F804F06F
:4002400085F803F04DFE01E004F04AF802F076F80028EBD102F01CFB02F02CF9FFF724FF02F096FD0028E1D003F090FE03F046FE00243CE02F4B9B781BB9314B33F814506D
:4002800002E0304B33F814502F4B33F814309D4229D0B0278DF8047004EB4406F6B28DF8056005F07F038DF80630002201A9032003F070FF8DF80470731C8DF80530C5F379
:4002C000C6138DF80630002201A9032003F062FF02368DF80560AB0B8DF80630002201A9032003F057FF184B23F814500134124B1B789C42BEDB0F4B1B78DBB2012B95D9CA
:4003000003F062F801F0DEFB4021002001F00CFE01F0E4FC03F0BCF803F0E2FD0022054B1A7083E7004600000C83FF1F3084FF1F1B83FF1F5C82FF1FCC80FF1F850000000E
:400340002083FF1F9083FF1FD882FF1F38B50C460B78902B11D14B783D2B0ED18B78003318BF01235F4A93705F490B705F4B0F22002000F043FD5E4B18702378B02B13D1F4
:4003800063788BB9A3785B4A527893420CD8594A137055494B70554B0F22002000F02EFD534B1870FFF78EFE2378B02B19D16378012B16D1A0784F4B1B79984211D84D4BB9
:4003C0005B7998420DD34B4DE870FFF7BBFE4649EB788B70454B0F22002000F00FFD444B18702378B02B1ED16378022B1BD1A2783C4BDB7803EBC213DBB23E4A92799342EA
:4004000011D83C4AD27993420DD33A4D2B723649CB70364B0F22002000F0F0FC344B1870287AFFF7C3FE2378B02B08D16378032B05D1A37813F0800F01D12A4AD370237862
:40044000B02B1CD16378042B19D1A578254B1B7903EBC515EDB2274B5B7A9D420FD8254B9B7A9D420BD32846FFF7A6FE1E490D711E4B0F22002000F0C1FC1D4B187023780A
:40048000B02B08D16378052B05D1A37813F0800F01D1144A13712378B02B17D16378062B14D1A5780F4B5B789D420FD3114B9B789D420BD82846FFF721FE0B494D710B4BD0
:4004C0000F22002000F09AFC094B18702378902B04D163783C2B01D102F0D2F802F0D0F838BD00BF5C82FF1F0C83FF1F3084FF1F1B83FF1FCC80FF1FFEE700BFF0B40022D5
:40050000174611E050F82760F3B226F0FF0608E001EB420511F812406D78A5550132013BDBB2002BF4D101371D2FEBD9F0BC70470E4B1B78DBB203F007010D4A11701B0982
:400540000132137010220B4B1A70002203F273631A70202203F253231A70012298331A704422A3F2E5231A70704700BFCF0100496E580040FD51004008B50A46002103F0BC
:40058000BAFF08BD38B50024264B1C80582202331A705F2202331A80182202331A70062203F27A231A705222A3F580731A701E4B1B78DBB21D4A13704FF4E1621C4B1A8056
:4005C00041F25122023B1A8019250CE0194B1B7803F0010343EA440404F003044FF4F07003F0F2FE013D0DB1032CEFD115B90320FFF782FF104A4FF480731380072313704D
:4006000000230E490B7048200231087013700532137002220A4B1A700A4A137843F00303137038BD804000400F010049A1460040224200402542004004400040064000400D
:4006400001400040A243004008B503F049FF08BD1C2808D8044B53F82020184490F8741013780B4313707047005A00001C2809D8054B53F82020184490F87410137823EA44
:4006800001031370704700BF005A000038B572B6414A137843F00403137000240DE03F4863001A19510001440A46B1F89810D2F89400FFF761FF0134E4B2052CEFD90024FA
:4006C0000DE03649A3001819420088180622D0F8BC10D0F8B800FFF7B7FF0134E4B2002CEFD02F494FF09040FFF708FF4FF440732C4A13800232138003222B4B1A802B4A46
:4007000003F5304390331A60294A137843F0020313701032137843F002031370254C237843F040032370A2F58632513A137843F010031370082220492048FFF785FF0822EE
:400740001F492048FFF780FF0A221F491F48FFF77BFF08221E491F48FFF776FF08221E491E48FFF771FF08221D491E48FFF76CFF1D4A137843F0080313701C4D61232B7077
:40078000FFF700FF81232B70FFF7D2FE0E2221461748FFF759FF38BDE8460040005A00007800004870580040485800400404044403500140A04300406C0600480251004042
:4007C00074060048C25100407C060048F05100408806004812510040900600482251004098060048325100402243004000480040B043004008B503F047FE03680C2B00D11E
:40080000FEE7FEE708B5104E104D16E029686B68AC68002204E051F8040B43F8040B0432A242F8D1E868002203E0002143F8041B04328242F9D11035013E002EE6D103F08D
:4008400029FEFFF7C7FCFEE701000000185E000008B5104A104B1A60104A136843F40073136000230AE0032B03D80D4A52F8231000E00C490C4A42F8231001332F2BF2D923
:400880000A4B1A780A4B1A70074A0A4B1A60FFF7FDFE08BD0004FA050CED00E014ED00E000000000F50700000080FF1FBC760040C080FF1F08ED00E070B48A690260002403
:4008C000264608E013681BB19E4201D202601E4602F5807201344D680B6903FB05F39C42F0D370BC704700BF8B6904E003F580730A68934203D21A688242F7D100E0002374
:400900001846704730B4044618B1086800F5807008600D681868854201D398690860002010605868844218D31C69012C13D90968A1EB00259B699D420BD204F1FF1404F573
:400940007F4400FB04F003EB0020C91A0844106003E0156001E00B68136030BC704700BF10B404460022FF2013E0A35C584000230BE010F0800F04D04000C0B280F03100FA
:4009800001E04000C0B20133DBB2072BF1D9013292B28A42E9D110BC704700BFC1680268D30912F07F0200D001221A44436803FB02F3027A02FB033301EB032321B1B3F58C
:4009C000802F03D9032070470320704700207047F0B5059C069F00251560DD01A54206D85E1CF601013EB44203D9002602E0002600E00126D6B104F07F02803202603C4472
:400A0000A54206D80133DB01013B9C4203D9002302E0002300E001231BB117440F600020F0BD4FF480730B600020F0BD04EB070E754505D80133DB01013B9E4500D8012625
:400A400066B180230360FB1864F07F041C440C6003681C1B274417600020F0BD0120F0BD70B504460E46C0F3072500F0D3FA32462946C4F3074000F053FB044600F042FE88
:400A80000CB1042070BD002070BD00BFF0B5C3B00446836800931D680127002623E0009F4FF48072394601A803F01AFD01350195802121A8FFF754FF2090224601A93846A1
:400AC000FFF7CEFFA069009B1B1A2068224601A91844FFF7C5FF0746234641AA69462846FFF710FF01366268236903FB02F39E42D5D3384643B0F0BD2DE9F047C0B00546B9
:400B00008A4690469946489EB469041B33681C44C76F80210844FFF723FF874207D14A4605EB0801504603F0DBFC00241BE0E76F80216018FFF714FF874213D14FF48072D5
:400B40002146684603F0CCFC324669462846FFF787FF044638B94A460DEB8801504603F0BFFC00E00224204640B0BDE8F08700BFF8B500293DD00D4600283CD0C368002B0D
:400B80003BD043680A2B3AD80768002F39D00446FFF704FF0646002834D1EF6063682B61237A2B75637A6B75E368AB612368DA0913F07F0300D0012313446B60626802FB0E
:400BC00003F3E26802EB03232C4644F8083B29462046FFF771FEAB681B689BB92B7D8BB12846FFF753FF064629462046FFF764FE08E0012606E0012604E0012602E001264A
:400C000000E001263046F8BD2DE9F04F8BB00691002A00F0E68081461F46934613181C460793FB689C4200F2DF80002900F0DF80B8680368099304F1FF3A4FEAD913C3EB7D
:400C4000DA1A0AF1010ABC69031B7A681502B3FBF5F303FB02F304EB0323039300250EE0B9EBC51F06D36B1CDB01013B994503D9002302E0002300E001231BB90135954230
:400C8000EED30025039BC01A030A184605933B69012B09D905EB0A03013B854207D8984208D20123049307E00023049304E00123049301E000230493C84600260123CDF8DB
:400CC0002090894635E0039B03EB052008F07F0404F180010136B24502D9C4F1800400E05C46049B63B1059B9D4209D97B68A0EB0320BA69904203D238685B1BA0EB0320C7
:400D00003B7D5BB1009723460A464946FFF7F4FE034648B18246DDF820900FE022460144484603F0DDFB0023A044C4EB0B0BA14401355645C7D39A46DDF820905346002B5F
:400D400057D1099B002B54D07D689D4228BF1D46013D5D1BDDF81880079E1C463EE039462846FFF7C1FD8646002836D0436881681944994504D29E4294BF0022012203E067
:400D800089452CBF002201223AB3994502D3C3EB090C01E04FF0000C994502D2C9EB030000E000200CF10C0CB14228BF314699452CBFC9EB0103CB1A40443A7D42B10097AC
:400DC000624601467046FFF797FE824628B110E01A460EEB0C0103F083FB0135A542BED907E001239A4604E001239A4601E001239A4650460BB0BDE8F08F00BF2DE9F04F66
:400E0000CDB01D4600230B930A93AB6809930391002A00F09F80824693461318EA68934200F29A80002900F099800BF1FF331B094C4AA2FB032305930133049300230793FC
:400E40009946012081E0099B1C682B4608AA09A92046FFF757FD4FF4807200210CA803F04AFB04F10108CDF83080CDF834A00399059B994502D1CDF838B007E070230E9361
:400E8000ABF1700B9A44039B703303930E9A0FA803F026FB089921B1802211442CA803F01FFB6C68A04503D9C4EB0804013400E00124002731E0444501D10CAE04E029467E
:400EC0002046FFF711FD0646AA69099B9A1A120A6968B2FBF1F301FB132356B17268B1680191009207AA0AA90BA8FFF771FD074600E001374FB90B98079931440A9A121A93
:400F00000C310CAB184403F0EBFA2B7D23B180212CA8FFF725FD2B9001344445CBD92A460CA90998FFF79CFD2B7D4BB140B9AA69099B9B1A28682A460CA91844FFF790FD71
:400F400068B9099BAB6009F10109049B9945FFF47AAF04E0012002E0012000E001204DB0BDE8F08F2649922410B501F09DF801F04BF910BB012001F029F9072818D10221FB
:400F80000F4801F0A3F802280AD102E0012000F0AFFB0C4B1B7813F0020FF7D0002409E0084B1B7813F0020FE9D04FF0FF3401E04FF0FF3401F04EF900E00424204610BDEF
:400FC0001C83FF1F2247004010B501F06DF801F01BF9D0B901F05AF90446072812D102E0012000F085FB0A4B1B7813F0020FF7D0074B1B7813F0020F04D0054B1B789B08B9
:4010000000D1002401F026F900E00424204610BD2247004008B5FFF7D7FF034610B9FFF7A3FF0346184608BD2DE9F041441FE4B23A2C01D9002500E0012510F0800F00D01E
:401040000125412800D901253F2803D8B1F5807F06D808E0802900D90125102B02D102E0012500E0012502B90125002D50D1984616460F46044601F0C7F8002847D14346F0
:4010800032463946204601F03BF8064607283AD102E0012000F02CFB1F4B1B7813F0020FF7D01D4B1B7813F0020F06D01A4B1B789B0805D04FF0FF3603E04FF0FF3600E037
:4010C0002E4606BB154A537812783946204601F057F8072804D0064615E0012000F008FB0D4B1B7813F0020FF7D00B4B1B7813F0020F06D0084B1B789B0804D04FF0FF3620
:4011000001E04FF0FF3601F0A5F8354600E004252846BDE8F08100BF224700401C83FF1F08B53F2801D9102301E04FF48073FFF77BFF08BD38B5044603F04EF905460F2C2B
:4011400007D81A4A137803F01F0343F04003137028E0202C07D8154A137803F01F0343F0800313701EE0312C07D8104A137803F01F0343F0C003137014E0422C05D80B4AE7
:40118000137803F01F0313700CE0532C07D8074A137803F01F0343F02003137002E0002000F098F9284603F01BF938BD004800400E4B1B7813F0070F04D10D4B1B7813F0BB
:4011C000010F0CD1094B1B7803F00703012B08D1084B1B7813F0010F05D10020704701207047002070470120704700BF93430040A5430040B54300400C4A137803F0F003F0
:40120000137000220A4B1A700A4A137843F080031370C2B2084B1A70000A01331870074A137843F001031370704700BF144000401040004008400040024000400140004040
:40124000024A137803F0FE031370704720420040054A137803F0EF0313701032137803F0EF031370704700BFA0430040024A137843F010031370704700420040024A137807
:4012800003F0EF031370704700420040044A137803F0FC0300F0030018431070704700BF05400040014B1870704700BF0440004070B5054603F090F80646164B1A78013BC5
:4012C0001B7843EA022305B1EBB9134B1C78E4B2062C02D80720FFF7E5FF45B90F4A137843F0400313702846FFF786FF07E02846FFF782FF094A137803F0BF03137020460E
:40130000FFF7D0FF02E02846FFF776FF304603F067F870BD074000400440004008400040024A137843F004031370704700430040024A137803F0FB03137070470043004052
:40134000F8B5194A137843F00103137048B3174B1C7804F00404E4B280331F78FFB202331E78F6B2182000F071FE09E0104B1B7813F0010F04D00E4B1B7813F0010F07D1FB
:40138000012000F04BFE10F0010FEFD0102500E000250CB9FFF7CCFF064B1F7002331E7000E000252846F8BD20420040004300402542004080430040144A137843F010037B
:4013C00013701032137843F010031370E0B170B50F4B1C7804F00404E4B280331E78F6B202331D78EDB2002000F030FE012000F015FE10F0010FF9D00CB9FFF799FF054B66
:401400001E7002331D7070BD704700BFA04300400043004080430040F0B583B08DF80700254A137843F001031370002840D0234B1E78F6B280331D78EDB202331C78E4B2CE
:40144000182000F003FE21E01B4B1B7804238DF806300BE0012000F0E1FD10F0010FF9D09DF80630013BDBB28DF806309DF8063013F0FF0FEED1104B1B7813F0800F0CD06E
:401480009DF80730013BDBB28DF807309DF8073013F0FF0FD8D1102700E0002716F0040F01D1FFF745FF064B1D7002331C7000E00027384603B0F0BD104200400043004059
:4014C00080430040024A137803F0FE03137070471042004001BE704710B50446FFF768FE012804D1254A137803F0FD031370082C3FD8DFE804F0050B11171D23293E2F00EF
:401500001F4B1B78DBB21F4A137010BD1E4B1B78DBB21C4A137010BD1C4B1B78DBB2194A137010BD1A4B1B78DBB2164A137010BD184B1B78DBB2134A137010BD164B1B7896
:40154000DBB2104A137010BD144B1B78DBB20D4A137010BD124B1B78DBB20A4A137001280AD102F5CB520832137843F00203137010BD0020FFF7AEFF10BD00BF096000405D
:4015800008010049A1460040090100490A0100490B010049890100490C0100490D0100490F01004970B506463A4B1C7804F00704082801D1032500E00546062C0BD8DFE823
:4015C00004F0040D06080D0D0D00022406E0032404E0002402E00020FFF77CFFAC4202D83046FFF779FF082E44D8DFE806F0050D151B232B33433B00264A137803F0B8035E
:4016000043F00303137038E0224A137803F0B80343F00103137030E01E4A137803F0B80313702AE01B4A137803F0B80343F00203137022E0174A137803F0B80343F004030A
:4016400013701AE0134A137803F0B80343F00503137012E00F4A137803F0B80343F0060313700AE00B4A137803F0B80343F04203137002E00020FFF72DFF082E02D1FFF7C0
:40168000F5FD01E0FFF7FAFDAC4202D93046FFF723FF70BD0042004008B501280FD0D8B102281FD14FF04022137803F0BF03137002F50072137843F02003137008BD4FF0C7
:4016C0004022137843F04003137002F50072137843F02003137008BD044A137803F0DF03137008BD0020FFF7F5FE08BD0042004008B5034B1B7A00FB03F002F065FE08BD84
:40170000D880FF1F08B502F067FE00BF00BF00BF00BF00BF00BF00BF00BF00BF00BF00BF00BF00BF00BF00BF00BF064A13889BB243F0040313801388BFF36F8F02F050FE9F
:4017400008BD00BF0048004070B504460E46074B1D681F2802D90020FFF7BCFE04F01F04103455F8240045F8246070BD08ED00E038B504460D46072902D90020FFF7AAFEEF
:401780001F2C02D90020FFF7A5FE04F01F0000F1604000F564406D01EDB2057038BD00BF134B1B78DBB20360124A127843EA02230360114A127843EA024303600F4A1278BE
:4017C00043EA026303600E4B1B78DBB243600D4A127843EA022343600B4A127843EA024343600A4A127843EA02634360704700BF0301004904010049EC460040020100492C
:40180000010100490001004905010049060100492DE9F04FDFF8BCA19AF80020554B9A72DFF8B49199F80020DA72534A12781A73524A12785A73524A12789A73514A127875
:40184000DA73514A12781A74504A12785A74504A12789A744F4A1278DA744F4A12781A754E4A12785A754E4A12789A754D4A1278DA754D4A12781A764C4A12785A764C4A58
:4018800012789A76DFF854B19BF80020DA76DFF8508198F800201A77DFF848C19CF800205A77DFF844E19EF800209A77414F3A78DA77414E327883F82020404D2A7883F86D
:4018C00021203F4C227883F822203E48027883F823203D490A7883F824203C4A127883F8252000238AF8003089F80030224A13700132137002321370023213700232137020
:40190000063213700232137001321370013213700232137002321370023213700632137002321370013213708BF8003088F800308CF800308EF800303B7033702B70237033
:4019400003700B7017321370214B1B7813F0080F0AD00122074B83F82F201D4A137803F0F7031370BDE8F08F0022024B83F82F20BDE8F08F6482FF1F035A0040045A004059
:40198000065A0040085A00400A5A0040105A0040125A0040135A0040145A0040165A0040185A00401A5A0040205A0040225A0040235A0040305A0040325A0040335A0040E4
:4019C000345A0040365A0040385A00403A5A004022430040005A0040025A0040245A0040265A0040285A00402A5A0040334B997A334A1170D97A02321170197B01321170E5
:401A0000597B01321170997B02321170D97B02321170197C02321170597C06321170997C02321170D97C01321170197D01321170597D02321170997D02321170D97D023277
:401A40001170197E06321170597E02321170997E01321170D97E01321170197F02321170597F02321170997F02321170D97F0632117093F820100232117093F8211001321C
:401A8000117093F822100132117093F823100232117093F824100232117093F825100232117093F82F30012B06D1A2F5B852183A137843F008031370704700BF6482FF1F32
:401AC000005A004010B5784A1378784C03F00F0384F83030764B197884F83110117801F0F00111701A7800221A7003F25E431B7803F0C00384F835303720FFF71BFB6D4B81
:401B00001A7802F0070284F833201A7802F0400284F834201B7813F0100F03D0012284F8392003E00022614B83F83920624B1B7803F003035D4A82F83230012B19D14FF09D
:401B400040231B7803F00303012B07D013B1022B08D00BE00020FFF799FB0AE00220FFF795FB06E00320FFF791FB02E00020FFF7B1FC524B1B7813F0010F06D001224B4B81
:401B800083F83E20FFF75CFB03E00022474B83F83E200420FFF706FD494B1B7813F0100F04D00122414B83F8362008E000203F4B83F83600FFF700FC0620FFF799FD3D4B66
:401BC0001B7813F0200F0FD04FF040231B7813F0400F01D1022200E00122344B83F837200020FFF759FD03E00022304B83F837204FF040231B7803F030032C4A82F83830FF
:401C00002BB14FF04022137803F0CF031370294B1B7813F0100F01D0FFF730FB294B1B78DBB2224A82F83A3013B10020FFF73AFB1E4B93F8323013B10020FFF727FB224B87
:401C40001B781B02194A9387204909780B43938713B10020FFF72CFB164B1B7803F007031B4AD05CFFF766FA1A4B1B7813F0010F06D001220D4B83F83F20FFF723FC03E0DE
:401C800000220A4B83F83F20134B1B7813F0040F04D00122054B83F8402010BD0022034B83F8402010BD00BFA14300406482FF1FA243004000420040054000402042004010
:401CC000A0430040044000400740004006400040C45A0000104200400B40004010B582B0854B53F8080F00909A889B79ADF804208DF80630814B93F84030012B10D1804BE3
:401D00001B7803F007037C4AD05C00EB8000C0EB001002F059FB7B4A137843F004031370764B93F83F30012B1AD10020FFF774FB754B1B78052411E0714B1B7803F0070398
:401D40006D4AD35CC82000FB03F002F03DFB6E4B1B7813F0800F03D0013CA4B2002CEBD13720FFF7E7F9654B93F83230023BDBB2012B0ED8654B1B78DBB2604A92F83A006D
:401D8000834201D0FFF78EFA5C4B93F83200FFF77DFA5A4B93F8343013F0400F0CD0574B93F8333002AA134413F8083C032B03D10820FFF7F7FB18E0504C94F8333002AA59
:401DC000134413F8080CFFF7EDFB94F8343013F0400F05D04A4A137843F04003137004E0474A137803F0BF031370444B93F83630012B07D1464B1B7813F0100F02D100206B
:401E0000FFF7DAFA3D4C94F83700FFF745FC94F83930012B01D1FFF729FA384B93F838304FF04022127802F030029A4206D04FF040210A7802F0CF0213430B702F4B93F817
:401E40003E30012B1AD10020FFF77AFA5020FFF74FFC304B1B78AB240EE00120FFF748FC2C4B1B7813F0010F04D02A4B1B7813F0010F03D1013CA4B2002CEED11F4B93F829
:401E80003230012B0ED8214B1B78DBB21B4A92F83A00834201D0FFF705FA184B93F83200FFF7F4F9154B93F8363033B9184B1B7813F0100F01D0FFF7CBF9174B1A78013B5B
:401EC0001B7843EA02230D4A908F834201D0FFF7EFF912480278094B93F8351002F03F020A43027093F830100D4A117093F831200C4B1A7002B010BDC45A00006482FF1F28
:401F0000004200400B4000401042004004400040A0430040254200400740004000480040A1430040A243004070B506460C4602F053FA0546334B1B7813F0080F06D1324A91
:401F4000137803F01F03137036B102E002F048FA70BD0020FFF7BEFAFFF75AFC2B4A11782B4B1971C4F30711117001321178597104F00F011170013211789971C4F30034F0
:401F80001470244B1B7813F0070F04D10122204B83F82E200DE01E49002381F82E301D4B1A7802F0070281F82D201A7802F0F8021A70144A137803F0F80343F003031370B2
:401FC000137800BF00BF30BF114B93F82E30012B08D010490B780E4A92F82D2003F0F80313430B70FFF702FD094B1979074A11705979013211709A79074B1A70284602F054
:40200000EFF970BD9343004083460040984300406482FF1F004200409A43004038B5054602F0DAF9074B1978074A92F842300B4303F0070423EA050382F8423002F0D0F979
:40204000204638BD904300406482FF1F38B50546134C237803F0FD032370FFF761F9237813F0010F0FD00F4B1B78DBB2AB4216D0227802F0FE0222700A4A1570227842F049
:402080000102227038BD074B1B78DBB29D4201D0044B1D70024A137843F00103137038BD824300408043004008B502F095F9064A137843F0080313701032137843F0080326
:4020C000137002F08DF908BDA043004070B506460D4600240CE00120FFF70AFB064B1B7813F0010FF7D0054B1B7833550134E4B2AC42F3D3204670BD224700402047004082
:4021000070B41D4C247814F0020F2CD01B4CB6252570D5252570022525700234247814F0020F22D1154C2070002404E0165D134D2E700134A4B29C42F8D3B3F5807F16D13D
:402140003F2816D800F5103001EB00214801002305E01A5CD2B209490A7001339BB21F2BF7D9072006E0042004E0092002E0072000E0072070BC7047224700402047004095
:4021800030B4104C247814F0020F15D00E4CB6252570D8252570052525700234247814F0020F0BD1084C2070080A2070C9B2217022702370072002E0042000E0092030BC92
:4021C000704700BF22470040204700400C4B1B7813F0020F0FD00B4BB6221A70E1221A700E221A7002331B7813F0020F05D1054B187007207047042070470920704700BF5B
:40220000224700402047004010B502F0E5F80F4B1B78A3B901220D4B1A700D4B1B6813F0010F0ED00A4A136823F00103136000BF00BF00BF0122054B5A60002402E00424AF
:4022400000E0002402F0CCF8204610BDA882FF1F0400084008B502F0BFF80A4B00221A705B68012B0AD1084A136843F00103136000BF00BF00BF0022024B5A6002F0B0F835
:4022800008BD00BFA882FF1F04000840074B1B7813F0020F08D0064BB6221A70E0221A700D221A700720704704207047224700402047004010B502F08FF80446134A1378C4
:4022C00043F02003137000F011FC00F035FB00F08BFB0F4A137843F010031370103A137843F01003137002F5A6520532137843F001031370204602F073F80222054B1A600B
:40230000054A137843F08003137010BD99640040BB43004000E100E07B6400400130C0B21A2808D0C20800F0070101238B4002498A5C1342F2D07047E880FF1F024B187892
:4023400000F00100704700BF5583FF1F10B50B4B195C1A18147F03EB80039B6B09221A700F2900D10721054A02EB8102D2F8A020137823431370FEF76BF910BDD45A00003D
:4023800070B505460B4B1C5C03441E7FFEF76EF90F2C00D10724074800EB8404D4F8A020137823EA0603137000EB8500836B08221A7070BDD45A000010B5002404E0204656
:4023C000FFF7DEFF0134E4B2192CF8D910BD00BF10B50E4A137803F0FC0313700C4B1B781B020C4921F810308E3212781343DB4321F81030FFF7C4FF002000F011FB064A8F
:40240000137843F00103137010BD00BF7B640040196500402083FF1F70580040024B187040081033187070472B64004038B5094B034493F8C050084C2044007900F0F0FA89
:40244000254495F82020054B1A7094F83A00FFF7E5FF38BDD45A0000E880FF1F5A64004038B50546FFF7E2FF084C237843F001032370074A137803F0FE0313702846FFF786
:4024800065FF237843F00203237038BD7B6400407058004008B5054B00221A70044A107081221A70FFF7DCFF08BD00BF5583FF1F5483FF1F10B500220A4B1A700A4CFF2304
:4024C00023702078FFF72AFF20702378DBB2192B07D8044A137843F0010313702078FFF7BFFF10BD5583FF1F5483FF1F014B1870704700BF89640040012805D1054A1378D0
:4025000003F0EF0313707047024A137843F01003137070477B64004038B5FFF74DFF0220FFF7EAFF01F058FF2E4A137843F0030313700132137843F00303137001F050FF15
:402540004FF43442284B1A804FF6FF7520331D80072441331C7001F03FFF244A137843F003031370FF32137843F00303137001F037FFFF231E4A157020321370403A13705D
:4025800002F21F12137030321370103A1370022203F1E02381331A6016490120FFF7D4F821460120FFF7E4F800F09CFA1A20FEF74FF81B20FEF74CF81C20FEF749F80E4AA2
:4025C000137843F00403137000F0F0F900F048FA002000F05BFA042000F068FA002000F01FFA38BD98640040286400409A6400402A640040BD2800007B64004008B5054B6A
:402600001B7823B9FFF788FF0122024B1A70FFF751FE08BDB082FF1F10B40B4B1A5C0B4B33F810300A4921F810300021094C2154094C24F8101009498C5C09498C54094A22
:4026400022F8103010BC7047945B00002083FF1FC483FF1F7483FF1F9083FF1F2481FF1FB482FF1FF883FF1F10B50446FFF712FFFFF764FE0028FBD12046FFF7CDFF10BD1B
:4026800010B5002404E02046FFF7EEFF0134E4B2192CF8D910BD00BFF0B5C40800F0070201239340DBB21A4A125C1A4D05EB4206B78BB6F85010AE5C174D2D5D2B420DD0A6
:4026C000DFF85CE03EF81000791A88421ADA25EA030511490D5511498E5413E0DFF840E03EF81000394488420ADD0C49895C012902D81D430848055501390848815401E03B
:4027000006498E54044A105D184000D00120F0BD945B00002481FF1F2C84FF1FB482FF1F9083FF1F70B5094B1C5C1844057F2544EDB200262046FFF7AFFF00B1012601349C
:40274000E4B2A542F6D8304670BD00BFB05B000030B40B4A135C1044057F1D44EDB2D80803F0070101228A40D2B2064C215C0A4322540133DBB29D42F1D830BC704700BF78
:40278000B05B0000E880FF1F30B40B4A135C1044057F1D44EDB2D80803F0070101228A40D2B2064C215C21EA020222540133DBB29D42F0D830BC7047B05B0000E880FF1FCC
:4027C000084400EB4100C0F38F007047F8B50446274B1A5C274B03EB4203B3F88460264D35F81010254B33F81000FFF7E9FF25F81400234B33F81420904203D3851AADB268
:40280000012702E0151AADB2002787B9142D0ED91C4B1B5D042B06D92046FFF7FDFE0022184B1A5517E00133164A135513E0B54202D9132D0FD877B913490B5D43EA022314
:402840001844801AC0F30F220D4B23F81420085500220C4B1A55B54204D91FB10B4B23F81450F8BD0022094B23F81420F8BD00BF945B00002481FF1FF883FF1F2083FF1F1F
:40288000C483FF1F5883FF1F7483FF1F9083FF1F10B500240DE0E20804F0070101238B4005498A5C134202D02046FFF78FFF0134E4B2192CEFD910BDE880FF1F10B5114B38
:4028C0001878FFF785FD104B1B7813F0800F05D00D4A137803F0FE03137010BD094C2078FFF71CFD20702378DBB2192B03D82078FFF7B6FD10BD044A137803F0FE03137024
:4029000010BD00BF5483FF1F5583FF1F00B585B000238DF809304FF4807200928DF808300A230193039003496846FEF721F905B05DF804FB3084FF1F054A137843F0010388
:4029400013701032137843F001031370704700BFA74300400F490B7803F0FC0200F0030313430B7001280AD10B4B1B78DBB20B4A13700B4B1B78DBB2013213707047094B91
:402980001B78DBB2054A1370074B1B78DBB201321370704740580040100100493046004014010049AD010049B501004908B50020FFF7D0FF0B4B1A7842F020021A701A7810
:4029C00002F0FB021A701A7842F008021A7003F287231A7802F0E7021A701A7842F010021A7008BD40580040054A137843F0010313701032137843F001031370704700BFE2
:402A0000A8430040054B1A7802F0FD021A701A7800F0020010431870704700BF20580040014B1870704700BF805B0040094B1B7803F00C035B08084A127812F0040F00D00F
:402A4000013303F1924393F82031DBB2034A1370704700BF20580040215800400846004008B51422084B1A700133002018701A7842F004021A701A7842F002021A70FFF763
:402A8000C1FFFFF7D3FF08BD2058004008B5064B1A7802F0FB021A701A7800F0040010431870FFF7C3FF08BD2158004008B5064B1A7802F0F3021A701A7800F00C0010436F
:402AC0001870FFF7B3FF08BD2058004010B5002404E02046FDF7CAFD0134E4B21C2CF8D910BD00BF08B5FFF7F1FF08BD054A137843F0010313701032137843F00103137048
:402B0000704700BFA2430040044A137803F0FD03400000F0020018431070704720510040F8B501F059FC05463C4A137843F0010313701032137843F0010313700127384B7E
:402B40001F700226943B1E7002F5E2521B32137803F07F0313700020FEF7CAFD314C237803F0F9032370304A137803F0DF03137023783B4323703846FEF7BAFD2820FEF760
:402B8000B7FD2A4B1A7802F07F021A701A7802F0BF021A702378334323703046FEF7A8FD237843F0040323700023214A137001321370284601F014FC07211720FEF7D8FD13
:402BC0001C491720FEF7C0FD07211820FEF7D0FD19491820FEF7B8FD07211520FEF7C8FD16491520FEF7B0FD07210420FEF7C0FD13490420FEF7A8FD07210520FEF7B8FDC5
:402C000010490520FEF7A0FD07210C20FEF7B0FD0D490C20FEF798FDF8BD00BFA54300409D6000409443004012600040F8510040846000409D33000009320000993300005C
:402C40003533000065330000A533000008B5204B187000231F4A13701F4A13701F4A13701F4A13701F4A13701F4A13701F4A13701F4B4FF400021A604FF080721A604FF41E
:402C800000121A6010221A6020221A6011B1012906D00BE0174A137803F0FE0313700AE0144A137843F00103137004E0114A137843F00103137003220F4B1A708022203BF9
:402CC0001A70012001F080FB04220C4B1A7008BD5784FF1F4C84FF1F5E84FF1F6484FF1F4D84FF1F5884FF1F7584FF1F4E84FF1F00E100E009600040286000401260004030
:402D000038B504460D46064B1B7823B9FFF708FF0122034B1A7029462046FFF797FF38BDCF82FF1F00230A4A13700A4A13700A4A13700A4A13700A4A13700A4A13700A4A0B
:402D400013700322094B1A708022203B1A7070474C84FF1F5E84FF1F6484FF1F4D84FF1F5884FF1F7584FF1F4E84FF1F28600040064A1378DBB203F0FB01117003F0040311
:402D800003F0FF0003B10120704700BF09600040014B1878704700BF6484FF1F064B1B7813F0FF0F05D0044B1878C0B200221A7070470020704700BF5E84FF1F00EB400096
:402DC0008300024A13445878704700BF7884FF1F431EDBB2072B0BD8064B00011A18185C00F00F00537843EA0020023880B2704700207047FC5F0040431EDBB2072B3CD872
:402E0000F0B4074600EB4004A3001C4C2344DB889BB2C3F500739A4208D900EB400293002344DA8892B2C2F5007292B200EB4004A300124C2344DB7843EA1223104D040180
:402E40002E192B55D3B2737039B909E0CE5C3D010C4C665501339BB200E000239A42F5D8420002449300054A134400225A705A79D2B20001044B1A54F0BC70477884FF1F61
:402E8000FC5F004078600040FE5F0040431EDBB2072B0BD8420002449300054A134400225A705A79D2B20001024B1A54704700BF7884FF1FFE5F004070B5D9B1054614467E
:402EC0000E46C8B1082819D8FFF782FFA04203D22846FFF77DFF0446002305E02901094A525CF25401339BB2A342F7D32846FFF7CDFF04E0002402E0002400E0002420463B
:402F000070BD00BF786000401D4B19781D4A13889BB20B449BB2138000220FE01A494B681B78DBB2194883544B6801334B600132D2B20B889BB2013B9BB20B80124B1B885A
:402F40009BB20BB1072AE9D90D4B1B78DBB2082B00D05AB10E490B7883F080030B700F210C4B197002210C4B197004E0022309490B7009490B70094B1A70014B1A70704763
:402F80004E84FF1F6284FF1F6884FF1F006000405984FF1F5684FF1F4C84FF1F7484FF1F0222074B1A708022064B1A700F22064B1A700023054A1370054A13700120704754
:402FC0004C84FF1F5984FF1F5684FF1F4E84FF1F7484FF1F08B5FFF797FF08BD10B4194B197801F00F010239C9B2174A13889BB20B449BB21380002011E0144A5468144B6A
:403000001B5CDBB223705368013353600130C0B20139C9B213889BB2013B9BB213800B4B1B889BB20BB10029E7D10A4B19700A4A137883F0800313700B22084B1A7010BC0C
:40304000704700BF296000406284FF1F6884FF1F006000407484FF1F5984FF1F5684FF1F0623064A1370064A13708022054B1A700022054B1A700120704700BF4C84FF1F8E
:403080005684FF1F5984FF1F7484FF1F064B9B6843B1054B9A6810709A6804490988518000229A60704700BF6884FF1F6284FF1F08B5134B1A78D2B21A701B78DBB213F0BE
:4030C000800F02D00F4A137008BD0220FFF7DEFF0D4B1B7803F06003202B05D0402B06D043B900F047FD06E001F07EF903E000F0EBFE00E0002010B90322024B1A7008BD73
:40310000286000405684FF1F0060004008B5094B1978094A13889BB20B449BB213800022064B1A700120FFF7B1FF0322044B1A7008BD00BF4E84FF1F6284FF1F4C84FF1FFB
:403140005684FF1F08B50B4B1B78DBB2042B06D0062B07D0022B0BD1FFF7D8FF08BDFFF73DFF08BD0320FFF791FF0322024B1A7008BD00BF4C84FF1F5684FF1F08B5002297
:40318000044B1A700120FFF781FF0322024B1A7008BD00BF4C84FF1F5684FF1F08B50B4B1B7813F0FF0F07D0084A137843F0800307490B70002313700022064B1A70012089
:4031C000FFF764FF0322044B1A7008BD5884FF1F086000404C84FF1F5684FF1F08B5094B1B78DBB2042B06D0062B07D0022B07D1FFF7F0FE08BDFFF7C1FF08BDFFF7CEFF01
:4032000008BD00BF4C84FF1F08B5284B1B78DBB213F0100F48D013F0800F0CD003F00F03012B16D1FFF744FF214B1B7813F0800F11D1012312E013F0400F03D0FFF7CEFF62
:4032400001230BE013F0200F07D0FFF77BFF012304E0002302E0002300E0002323B3134B1B7813F0800F1FD1124B1B78124A12781343124A13701278D2B2934214D10C4B20
:403280001B78DBB2094A127812F0800F07D1084B1B78DBB2054A1370137803F00F03044A1278D2B29342EAD108BD00BF286000405684FF1F5984FF1F7484FF1F29600040C9
:4032C0000022064B1A80064B9B682BB1044A916800230B7092685380704700BF6284FF1F6884FF1F08B50F4B1B889BB213B9FFF757FE15E002220C4B1A7000220B4B1A7041
:40330000FFF7DEFF0A4AD179937943EA0123054A128892B2934201D2024A1380FFF7F4FD012008BD6884FF1F4C84FF1F5984FF1F006000400122094B1A700F3B9B7C084BF6
:403340001B7B03F00303934204D0054AD37B83F08003D3730122024B5A7370470B6000407884FF1F02220A4B1A700F3B93F82230084B1B7E03F00303012B04D0054AD37ED4
:4033800083F08003D3760122024B5A76704700BF0B6000407884FF1F704700BF08B5FFF7C1FC08BD08B500F06FFF08BD08B5054B1B7813F0FF0F03D000F0FEF800F04EF927
:4033C00008BD00BF6484FF1FF8B501F005F80446284B1B7813F0800F3BD0274F01263E70264A137803F07F0313700020FEF780F9234D2B7803F0F9032B701E4A137803F06C
:403400007F0313700020FEF773F91E4B1A7832407A701A7802F0FE021A703046FEF768F92B7803F0FE032B70174A137843F020031370A2F5E3520D3A137803F0FE031370C9
:403440001032137803F0FE0313703046FEF750F902E00022084B1A70204600F0C1FF00F013FF4FF48053094A1360A2F5C0721360F8BD00BF08600040D082FF1F1060004007
:4034800094430040096000401260004080E200E038B500F0A1FF0546244B1B78002B40D04FF48052224B1A60224A137843F0010313701032137843F00103137002F5E752EF
:4034C0000832137843F0010313701B4C237843F0010323702820FEF70BF9184A1178134B5B780B4313700020FEF702F9237843F0020323700220FEF7FBF8237843F00403FE
:40350000237003220E4B1A700E4A137843F080031370012000F058FF04220B4B1A70FFF745FF284600F05CFF38BD00BFD082FF1F80E100E0A5430040944300400960004026
:4035400028600040086000401260004070B588B0054603AC174E0FCE0FC43368237035B322232B7003236B7001A8FEF719F9002402231AE008AA224412F81C2C08A901EBCC
:40358000121111F8141CE954581C00212954981C02F00F0208AE324412F8142C2A54DA1CA9540134E4B20433DBB2212BE2D908B070BD00BFE85B000010B401233EE01946E0
:4035C0001A010C242148845403EB4300820020480244527912F0FF0F13D003EB430082001B480244127912F0800F04D01801194A024494700AE01801164A0244082090703D
:4036000004E01801134A0244802090704800084482000F480244D488E4B208010B4901448C71D088C0F30720C871D088C0B20871D288C2F307224A710133DBB2082BBED9DA
:40364000FF22054B1A7010BC704700BF706000407884FF1FFC5F00400A600040012319E003EB43018A000D490A44127912F0800F07D003EB43018A0008490A4401215170F0
:4036800006E003EB43018A0004490A44002151700133DBB2082BE3D9704700BF7884FF1F074B1A78074B03EBC2035B681A7C824204D9C00010301844406870470020704736
:4036C0005784FF1FFC5B0000F8B5404B1B7813F0FF0F79D03D4B18780138C0B2FFF7E0FF047AC2683A4B1878C0B200236AE01178884264D13749095CC9B25578A9425ED152
:40370000917801F07F01D67806F00306DFF8C8E04D000D44AF000EEB07054FF0000C85F803C092F802C085F804C092F803C00EF807C097882F8192F90250002D0DDA012ED0
:4037400001D1072700E00D274E000E44B500224E35446F7101266E700CE0012E01D1052700E009274E000E44B5001B4E35446F7100266E70DFF868E00F010EEB0706012573
:40378000B57001FA05F529448D00134929440D89C5F307250EF807500D89EDB27570CE88F6B20E4D3D44AE71CE88C6F30726EE71CE88F6B22E71C988C1F3072169710832C9
:4037C0000133DBB2A34292D3F8BD00BF6484FF1F4D84FF1F5484FF1F7884FF1F70600040FC5F0040034B1A78034B03EBC2035868704700BF5784FF1FFC5B000008B5084B23
:4038000018780138C0B2FFF74BFF30B142681279023200EBC203586808BD002008BD00BF6484FF1F2DE9F843002310E0724D5900CA189600AC190022AA55A270E270228103
:40384000A272627034462C4462710133DBB2082BECD940B90AE000226849CA546849CA540133DBB200E00023012BF4D9654B1B7813F0FF0F00F0BD80624B18780138C0B223
:40388000FFF70EFF4368DB7913F0400F05D05E4A137843F00103137004E05B4A137803F0FE031370057A012474E0C16800236DE08A7802F07F02944265D1264604EB4407AF
:4038C000BA004D4F3A44128992B28F88BA4207D204EB440E4FEA8E02DFF81CE1724417810A78464FBA5CD2B24F78BA424BD191F802C0DFF804E17200324497000EEB0702E5
:4039000082F804C0CA780EF80720CA7802F0030291F90270002F1BDA012A02D14FF0070901E04FF00D09DFF8D0C0770007EB06084FEA880EE6448EF8059001268EF80160FE
:403940008E79012E1FD1022A1DD1304A14701AE0012A02D14FF0050901E04FF00909DFF898C0770007EB06084FEA880EE6448EF8059000268EF801608E79012E03D1022A95
:4039800001D1234A147008310133DBB2AB428FD30134E4B2082C88D9C06800220CE0837803F07F0310F8084B03EB43039900124B19448C720132D2B2AA42F0D3FFF71EFF9C
:4039C000144B1860002301210FE00B4D4A00501884002C44E380228992B213449BB203F0010213449BB20131C9B20829EDD9FFF7E3FDBDE8F88300BF7884FF1F5484FF1FC5
:403A00005C84FF1F6484FF1F7584FF1F0485FF1F0685FF1F5084FF1F08B5154B1B7903F07F035A1ED2B2072A20D8590019448A0010490A44917841F0010191700021D17058
:403A4000517841F002015170127912F0800F05D01B01094A1A448D23937004E01B01064A1A4489239370FFF7FBFA08BD002008BD006000407884FF1FFC5F0040274B1B79CA
:403A800003F07F035A1ED2B2072A44D810B5590019448A0022490A44917801F0FE0191700021D1701F4C1801215C01F07F012154517801F0FD015170127912F0800F13D0CF
:403AC00003EB43018A0016490A445278D2B2012A04D1224602440C23937019E01B01114A1A440D23937013E003EB43018A000C490A445278D2B2012A05D11B01094A1A44C0
:403B00000823937004E01B01064A1A4409239370FFF7A6FA10BD0020704700BF006000407884FF1FFC5F004010B50E4B1C79E4B20D4B18780138C0B2FFF7B2FD43681B796C
:403B40009C4201D9022C0AD8084A135DDBB208490B55044B9B78DBB21355012010BD002010BD00BF006000406484FF1F5484FF1F5C84FF1F10B59C4B1B78DBB200219B4A20
:403B8000118013F0800F00F0AD80974A5278D2B20A2A00F27481DFE812F06900720172017201720172010B007201920072019A008D4BDB78DBB2012B09D1FFF713FE42687E
:403BC0008A4B5A6012221A80FFF78CFB10BD864BDB78DBB2022B13D1834B9878FFF760FD002800F04E814268804B5A605A68D1785A68927842EA01221A80FFF773FB10BD24
:403C0000794BDB78DBB2032B05D02CE00A7811440133DBB201E000237549734A9278D2B2934203D20A7812F0FF0FEFD16E4B9B7813F0FF0F0BD06C4B9B78DBB26D4A127CDC
:403C4000934204D16C4C2046FFF780FC21460B7813F0FF0F00F017810B78644A13805160FFF740FB10BD00F0BFFB10BD13F0030317D0022B40F009815C490B805A4B1B795D
:403C800003F07F0303EB43039A005C4B1A449278D2B25B4B1A7000225A704B60FFF722FB10BD524902230B80564B1A78D2B2544B1A7000225A704B60FFF714FB10BD4B4B5D
:403CC00001221A80504A5A60FFF70CFB10BD474A01231380444B1B794C490B445360FFF701FB10BD404A5278013A0A2A00F2CF80DFE812F04C00CD009800CD000B00CD0005
:403D0000CD00CD001300CD003000374B9B78DBB23F4A1370FFF7A4F910BD334B9B7803F0FF041BB1601EC0B2FFF7BAFC04B110B9002C40F0AE80344B1B78DBB29C4206D001
:403D4000314B1C700120334B1870FFF76BFDFFF787F910BDFFF7E8FE002800F09C80224A1379DBB21279D2B22B490A702B4AD25CD2B22649CB5CDBB29A4204D00122254B54
:403D80001A70FFF7A1FCFFF76BF910BD03F00303012B17D04BB1022B7FD1134B9B7813F0FF0F7CD1FFF76AFE10BD0F4B9B78DBB2012B76D1134A137803F0FD031370FFF77F
:403DC0004FF910BD084B1B79DBB2012B6BD8064B98781B79DBB21249CA5C22EA0002CA54FFF73EF910BD00BF006000406884FF1F5C5C0000E05D00002885FF1F7884FF1F5F
:403E0000D482FF1F7584FF1F6484FF1F5484FF1F5884FF1F5E84FF1F4D84FF1F5C84FF1F6084FF1F03F00303012B17D04BB1022B3BD1224B9B7813F0FF0F38D1FFF7ECFD58
:403E400010BD1E4B9B78DBB2012B32D11C4A137843F002031370FFF703F910BD174B1B79DBB2012B27D8154B98781B79DBB21549CA5C22EA0002CA54FFF7F2F810BD002016
:403E800010BD002010BD002010BD002010BD002010BD002010BD002010BD002010BD002010BD002010BD002010BD002010BD002010BD002010BD002010BD00BF00600040E0
:403EC0007584FF1F6084FF1F044B1B7813F0800F01D0024B5B780020704700BF0060004008B50022034B1A70034B1878FEF7CEFF08BD00BF0585FF1F0685FF1F38B5124B98
:403F00001878FEF75BFF01281DD10F4C2078FEF75FFF2378C2B20D491846FEF7CDFFC5B2032D0DD838BD094B185D60B1631C0749194400F0F000FCF709FA0434E4B200E0B6
:403F40000024AC42EFD338BD0685FF1FE484FF1F0B4B1B7813F0FF0F10D010B5094B1878FEF72CFF012808D1064B1878044C22780549FEF741FF0023237010BD704700BF5D
:403F80000585FF1F0485FF1F0885FF1F08B5FFF7DFFF08BD70B40D784C78F72821D97B4A1478E4B27A4943F00F030B5513780133DBB213701378DBB2C85413780133DBB28D
:403FC00013701378DBB20020C85413780133DBB213701378DBB2C85413780133DBB21370D2E0032801D9F0285FD1F0280BD1674A1078C0B243F00403654E33541378013347
:40400000DBB2137038E0EF2D0BD8604A1078C0B243EA15135E4E335413780133DBB213702AE0F62D0BD1594A1078C0B243F00503574E335413780133DBB213701CE0F12D68
:4040400001D0F32D0BD1514A1078C0B243F002034F4E335413780133DBB213700CE0F22D0AD14A4A1078C0B243F00303484E335413780133DBB21370444B1A78D2B24448E9
:4040800085541A780132D2B21A701A78D2B284541A780132D2B21A701A78D2B2897881541A780132D2B21A706EE0F7286CD1012A26D012B1022A46D066E0344A1078C0B246
:4040C000334943F005030B5413780133DBB213701378DBB2F720C85413780133DBB213701378DBB20020C85413780133DBB213701378DBB2C85413780133DBB2137043E078
:40410000224A1078C0B2224943F006030B5413780133DBB213701378DBB2CD5413780133DBB213701378DBB2F720C85413780133DBB213701378DBB20020C854137801330F
:40414000DBB2137020E0114A1078C0B2104943F007030B5413780133DBB213701378DBB2CD5413780133DBB213701378DBB2CC5413780133DBB213701378DBB2F720C854BC
:4041800013780133DBB2137070BC70470585FF1F0885FF1F2DE9F04104460E461746374B1978C9B2364B1B7803EB43039A00354B1A4413899BB2043B994201D9FFF7C8FED1
:4041C0002E4B1978C9B22E4B1B7803EB43039A002C4B1A4413899BB2043B994248D8231FDBB2EB2B08D93B46224631462046FFF7D1FE4FF000083DE000253B46032271195E
:40420000F020FFF7C7FE033CE4B20335EDB21B4B1978C9B21A4B1B7803EB43039A00194B1A4413899BB2043B994210D9FFF790FE124B1978C9B2124B1B7803EB43039A0076
:40424000104B1A4413899BB2043B994204D8022CD3D84FF0000801E04FF00108B8F1000F08D13B4622467119F720FFF793FE01E04FF001084046BDE8F08100BF0585FF1F8F
:404280000485FF1F7884FF1F024B1878C0F38010704700BF8F45004008B50F4B1B7813F0020F0ED100F098F80B4A137843F0020313708232137843F00403137000F090F867
:4042C00008BD00F089F8054A137843F00403137000F086F808BD00BF004300408243004008B500F079F8044A137803F0FB03137000F076F808BD00BF8243004008B500F078
:404300006BF8044A137843F00803137000F068F808BD00BF82430040064B1B7813F0040F07D1054A137803F0F00300F00F00184310707047824300408143004008B504209A
:40434000FFF7EAFFFFF7DAFF08BD00BF08B5054B1B7823B9FFF7F2FF0122024B1A70FFF79BFF08BDD682FF1F08B50220FDF756FE08BD00BF014B1B681864704708ED00E061
:404380004001C0B2014B1870704700BF00E400E00122014B1A60704700E100E00122014B1A60704780E100E010B50446FFF7F6FF2046FFF7DFFF0720FFF7E2FFFFF7E8FFEB
:4043C00010BD00BF000000000230800803D000BF01380046FCD17047EFF3108072B6704780F31088704700BF08B5144B1B7803F00303012B02D0022B04D00FE00F4B1B798C
:40440000DBB20CE00D4B1B7903F07F0303EB43039A000B4B1A44937ADBB200E00023022B07D8084A1268D35C012B04D100F00CF808BD002008BD002008BD00BF0060004099
:404440007884FF1F5084FF1F0E4A137803F00303127812F0800F09D0022B02D1094B5B780DE0012B0BD1074B5B7808E0022B02D1044B5B7803E0012B01D1024B5B780020F4
:40448000704700BF00600040014B1868704700BF3C82FF1F0E4B70B51E460E4C0025E41AA410A54204D056F8253098470135F8E701F0A0FC084B094C1E46E41AA4100025F3
:4044C000A54204D056F8253098470135F8E770BD005E0000005E0000005E0000085E000010B5431E0A44914204D011F8014B03F8014FF8E710BD03460244934202D003F825
:40450000011BFAE7704700000000000000000000000000000000000000000000000000000000000000000000000000000000000000000000000000000000000000000000C7
:40454000000000000000000000000000000000000000000000000000000000000000000000000000000000000000000000000000000000000000000000000000000000003B
:4045800000000000000000000000000000000000000000000000000000000000000000000000000000000000000000000000000000000000000000000000000000000000FB
:4045C00000000000000000000000000000000000000000000000000000000000000000000000000000000000000000000000000000000000000000000000000000000000BB
:40460000000000000000000000000000000000000000000000000000000000000000000000000000000000000000000000000000000000000000000000000000000000007A
:405A00003C5100403C5100403C5100403C5100403C5100401C5100401C5100401C5100401C5100400C5100400C5100400C5100402C5100402C5100402C5100402C510040E6
:405A40002C5100401C5100403C5100403C5100400C5100400C5100402C510040FC510040FC510040FC510040FC510040C35A0040835A004001020810201020408020408072
:405A8000081020408004408001020101022010011000000040510040300000000140001000140140000800400140000A004C014000020050014020006052004064060048C4
:405AC000060000000C061803303E4A00020103000405060003030303030101010100000002020202020103030000020F0F0F000001020810201020408020408008102040D0
:405B000080044080010201010220000018500040195000401B5000401C5000401D5000400C5000400D5000400E5000400F50004005500040065000400750004013500040CA
:405B4000145000401550004016500040175000400A5000401E5000401F50004000500040015000401050004078500040795000407D500040065200400E52004016520040D9
:405B80001E520040265200402E520040365200407E520040000102030405060708090A0B0C0D0E0F101112131415161718190000000102030405060708090A0B0C0D0E0F28
:405BC000101112131415161718190000010101010101010101010101010101010101010101010101010100003031323334353637383941424344454600000000010000001B
:405C0000045C000001000000E05D00000000000000000000010000001C5C000001000000785D000002000000485C00000000000000000000000000000000000000000000D1
:405C4000445C0000010100000100810220000100010002022000010002030000040309042A0353006E007900640065007200700068006F006E0069006300730020004400A4
:405C8000650076006B0069007400400353006E007900640065007200700068006F006E0069006300730020004400650076006B006900740020004300610070007300650082
:405CC0006E0073006F007200730024034D00490044004900200043006F006E00740072006F006C00200049006E007400660028034D004900440049002000530074007200CC
:405D0000650061006D0069006E006700200049006E00740066002E0354006F00200053006E007900640065007200700068006F006E006900630073004400650076004B005A
:405D4000690074003203460072006F006D00200053006E007900640065007200700068006F006E006900630073004400650076004B006900740000000902650002010180B9
:405D8000320904000000010100030924010001090001010904010002010300040724010001250006240201010506240202020509240301030102010609240302040101011C
:405DC00006090581022000000000052501010309050202200000000005250101010000001201000200000008242427240100010280014300F8B500BFF8BC08BC9E46704767
:405E00004D00000051080000F8B500BFF8BC08BC9E46704729000000285E0000C880FF1F780100001003000000000000021A030A1008FF010BFF01030000E02EC05D000022
:405E40001800000000366E01FFFFFF03C8C8C8C8C8C8C8C8C8C8C8C8C8C8C8C8C8C8C8C8C8C8C8C8C8C80000030303030303030303030303030303030303030303030303CD
:405E800003030B00030305050505050505050505050505050505050505050505050500001E001E001E001E001E001E001E001E001E001E001E001E001E001E001E001E0073
:405EC0001E001E001E001E001E001E001E001E001E001E000A000A000A000A000A000A000A000A000A000A000A000A000A000A000A000A000A000A000A000A000A000A009A
:405F00000A000A000A000A000D000D000D000D000D000D000D000D000D000D000D000D000D000D000D000D000D000D000D000D000D000D000D000D000D000D0000000000E7
:405F400000000000000000000000000000000000000000000000000000000000F25D00000000000000000000000000000000000000000000000000000000000000000000D2
:405F800000000000000000000000000000000000000000000000000000000000DC81FF1F000000000000000000000000000000000000000000000000000000000000000066
:405FC00000000000000000000000000000000000000000000000000000000000000000000000000000000000000000000000000000000000000000000000000000000000A1
:406000000000000000000000000000000000000000000000000000000000000000000000000000000000000000000000000000000000000000000000000000000000000060
:406040000000000000000000000000000000000000000000000000000000000000000000000000000000000000000000000000000000000000000000000000000000000020
:4060800000000000000000000000000000000000000000000000000000000000000000000000000000000000000000000000000000000000000000000000000000000000E0
:020000040003F7
:0200000480007A
:40000000014500400652004005640040066500400105014002070140620801403F090140600A01403E0B0140020D0140021701405B18014050190140651A0140481B0140E8
:400040000840014007410140084201400B430140044401400345014001460140054701400648014003490140014C0140074D014004500140025101407E0206E30EF416F94B
:400080001EFB7C407E230AFF0BFF1AFF2AFF891F09FF19FF29FF880F89388A72E648E204EE0C010A031407080B151113130C160318022113230429032B14311034013602E8
:4000C000370F3B803F014001410649FF4AFF4BFF4C024D0C4EF8580459045A045C105F01624863A168F06AF06CF06EF082208303840585108602870889188E208F0490079C
:400100009103921095029609980699189A099C079D01A008A108A201A310A606A704AA06AB03AC07AD03B004B118B203B420B503B618B704BE50BF50C001C106C6A0C9FF47
:40014000CAFFCBFFCC03CD0CCEF4D602D804D904DA04DB04DC10DE08DF01E248E3A1E8F0EAF0ECF0EEF000800108038009080A490E28108011A4180419481A401B031D80EB
:400180001E082110228224402701288229202A042D022F08308031083312370139903B063D083E22418045804A084E08521073407A08910692099740980299209D499E1067
:4001C000A081A158A218A408A703AB60AF20C00DC26FC40FCAAFCC8FCEEFD018D224DE04E204EE01041F052A0C370D3C0E08100112101424173018191A261C0E1D151E1162
:40020000200222202B3F2C1F2D0F2F403020310C34103503360F37703E013F51404541064520470648125608580459045A045B0F5F01610C62F0630C650C670C6840694CB0
:400240006A406B4C6C906D586F0C89108B048C048D0B8F149303951796019708991D9B029C04A602AC01AE02B204B301B403B506B718B808BE10C056C540C602C750C8265D
:40028000C9FFCAFFCBFFCC02CD20CF05D110D217D804D904DA04DB04DF01E040E140E280E480E680010803020601080109080A090B400E200F011080118016121840192022
:4002C0001A091E201F20200A21012550262829202B0130883628370138083A403D803E104040488449404E084F8150045108560157405B40600262406D046E106F017602BB
:40030000780185088D019E40C085C2AFC4A9CA0CCCEACE3AD001D23CD608D808DE01E6408640E008E204EE02020104060802100E1221142F18101C04240E262128292A0681
:40034000300732083410362038803A023E144043410145EE460B470C481749FF4AFF4BFF4EF04F44500C5401560458045A045B045C015D115F0166C06A406B0281028401F1
:4003800085FF8B408C018D03914F9390950C99049D08A141A5CCA723A801A9F3AB0CAFB3B30FB57CB601B78CBB28C025C104C520C706C812D418D604D804D904DA04DB042E
:4003C000DC11DD10DF01E10CE2F0E30CE50CE70CE840E94CEA40EB4CEC90ED58EF0C01400310040205140A800B400C800D040E600F081110120314181728180219801E5803
:400400001F822140220823282898298030803114330234013502381039083A013B4040204111430844014620470148014B024F095008568057085A025C605E085F0160045A
:40044000628063806501834090449122959097029B019C809D039E269F10A001A282A448A504A788B202B304C075C2F0C462CA0FCC0FCE0FD0D5D208D6F1D88DEE02091C2C
:400480000F03111213441503191C1D071F38210923C4270329032F03310333803560371C3F10406541034201440245E0470C481249FF4AFF4BFF4C624DA04EF04F41500C4D
:4004C0005602571159045A045B045C105D115F016640670269106A306B106D106E106F128005812C83438620870C89808B138CC78E3091719306940A96C49A189C039E6CF8
:40050000A004A171A2A3A30EA708A804AA40B130B3C0B41FB6E0B70FB90ABA80BBA0BF01C004C704C9FFCA07CBFFCC40CD20CEF0CF05D008D804D904DA04DC11DD01DF0198
:40054000E040E1A8E240E32006A20D280E01160817011D201E011F4020142241254D26102704289029202B022D022E082F4032423314370139103B403D083E224004414043
:40058000430445414602484049A04A084B40520456285A1069506B10708071148120888091809210941095509682981099809A809B019C809D169E269F10A20AA302A4C086
:4005C000A504A610C0B0C2E0C450CACFCC8FCEECD08ED20CD604E0043002334036183B207B01CCF0CE10DC80331097209F40A402A618A701CC1086108E0897209F50A402D5
:40060000A618A701E6102740831097209F50A320A402AB20AF01C880E220EE3029203A20CA08CE08862099209E2099200B400F808340A920C20C8002A320A402AF10E22071
:40064000EE407B20A320DE40AF401010740280028810C408DE04E20400030C0310031C0300FE010A80800000400000000000E300000000004080800080000000400000002D
:4006800023000000D0000000000BFF00000000000002FB00000000000000FB0000000000000000000000000000000000000000000000000000000000000000000000000045
:4006C00000000000000000000000000000000000000000000000000000000000000000000000000000000000000000000000000000000000000000000000000000000000FA
:4007000000000000000000000000000000000000000000000000000000000000000000000000000000000000000000000000000000000000000000000000000000000000B9
:400740000000000000000000000000000000000000000000000000000000000000000000000000000000000000000000000000000000000000000000000000000000000079
:400780000000000000000000000000000000000000000000000000000000000000000000000000000000000000000000000000000000000000000000000000000000000039
:0200000490006A
:0400000000004005B7
:0200000490105A
:04000000BC90ACAF55
:0200000490303A
:02000000715F2E
:0200000490402A
:4000000000000000000000000000000000000000000000000000000000000000000000000000000000000000000000000000000000000000000000000000000000000000C0
:400040000000000000000000000000000000000000000000000000000000000000000000000000000000000000000000000000000000000000000000000000000000000080
:400080000000000000000000000000000000000000000000000000000000000000000000000000000000000000000000000000000000000000000000000000000000000040
:4000C0000000000000000000000000000000000000000000000000000000000000000000000000000000000000000000000000000000000000000000000000000000000000
:0200000490501A
:0C00000000012E16106900012E3281C88C
:00000001FF